:020000040800F2
:1000000020D1002499030008E1970008C97C00086A
:10001000918900086109000889D9000800000000E2
:10002000000000000000000000000000F1A4000833
:100030002911000800000000419B000819A50008D4
:10004000B7030008B7030008B7030008B7030008A8
:10005000B7030008B7030008B7030008B703000898
:10006000B7030008B7030008B7030008810D0008B4
:10007000910D0008B7030008B7030008B703000894
:10008000B7030008B7030008B703000871110008A0
:1000900081110008B7030008B7030008B703000880
:1000A000B7030008B7030008B7030008B703000848
:1000B000B7030008B7030008B7030008B703000838
:1000C000B7030008B7030008B7030008B703000828
:1000D000B7030008B7030008B7030008B703000818
:1000E000B7030008B703000800000000B7030008CA
:1000F000B7030008B7030008B7030008B7030008F8
:10010000B7030008B7030008B7030008B7030008E7
:10011000B7030008B7030008B7030008B7030008D7
:10012000B7030008B7030008B7030008B7030008C7
:10013000B7030008B7030008B7030008B7030008B7
:1001400000000000000000000000000000000000AF
:10015000B7030008B7030008B7030008B703000897
:10016000B7030008B7030008F9970008E9970008EB
:10017000B703000809980008B70300080000000052
:10018000B7030008B7030008B7030008B703000867
:10019000B7030008B7030008B7030008B703000857
:1001A000B7030008B7030008B70300080000000009
:1001B000B7030008B7030008B7030008B703000837
:1001C000B7030008B70300080000000000000000AB
:1001D0000000000000000000B7030008000000005D
:1001E000000000000000000000000000000000000F
:1001F0000000000000000000B7030008B70300087B
:10020000B7030008B703000800000000B7030008A8
:10021000B7030008B7030008B7030008B7030008D6
:10022000B703000800000000B7030008000000004A
:10023000B7030008B703000800000000B703000878
:10024000B7030008B7030008B7030008B7030008A6
:10025000B7030008B7030008B7030008B703000896
:10026000B7030008B7030008B7030008B703000886
:10027000B7030008B7030008B70300080000000038
:10028000B7030008B7030008B7030008B703000866
:1002900000000000B7030008B703000800000000DA
:1002A00000000000B7030008B7030008B703000808
:1002B00071B10008B7030008B703000891110008E6
:1002C000B7030008B7030008B703000800F002F8FE
:1002D00000F052F814A696E8000CB244B344DA4594
:1002E00001D100F049F8BAE80F000FA696E83000F7
:1002F000A5EB040504EB0607AAEB0704A7F1010729
:100300004FEA15154FEA3414A4F10104AC4201D3AD
:1003100000F032F813F0010F18BFFB1A43F001038D
:1003200000F001F8DBE718475408010074080100E9
:10033000103A24BF78C878C1FAD8520724BF30C811
:1003400030C144BF04680C60704700007047000073
:100350000023002400250026103A28BF78C1FBD8CE
:10036000520728BF30C148BF0B6070471FB510F05F
:1003700031FB1FBD10B510BD00F07AF91146FFF733
:10038000F5FF0EF0FDFA00F098F903B4FFF7F2FF65
:1003900003BC00F09BF900000A4880470A488047E8
:1003A0000A480047FEE7FEE7FEE7FEE7FEE7FEE756
:1003B000FEE7FEE7FEE7FEE705480649064A074B6B
:1003C000704700004111000841A60008CD02000856
:1003D0002091002420D1002420B1002420B1002449
:1003E00053EA020C00F069802DE9F04B4FF0000653
:1003F000002B1FBFB3FA83F503FA05F424FA05F6C0
:100400005E4012BF1643B2FA82F502FA05F4C5F156
:1004100020051EBF22FA05FC44EA0C04203556EAEA
:10042000044C4FEA144418BF641C4FF000084FF00E
:100430000009904271EB030C39D3002919BFB1FABE
:1004400081F701FA07F6B0FA80F700FA07F6C7F16C
:1004500020071EBF20FA07FC46EA0C062037B6FB31
:10046000F4FCA7EB0507103F07F01F0BCBF12006AC
:100470002CFA06F60CFA0BFB44BFB3460026202FDD
:10048000A4BF5E464FF0000B5BEA060C08BF4FF0BE
:10049000010B19EB0B0948EB0608ABFB027C06FBD2
:1004A00002CC0BFB03CCC01B71EB0C01C1E70B466C
:1004B000024641464846BDE8F08B13B5084318BFD5
:1004C0004FF0FF300146AFF30080BDE81C4070479D
:1004D000032A40F2308010F0030C00F0158011F870
:1004E000013BBCF1020F624498BF11F801CB00F848
:1004F000013B38BF11F8013BA2F1040298BF00F89C
:1005000001CB38BF00F8013B11F0030300F0798004
:10051000083AC0F0088051F8043B083A51F804CB7F
:10052000A0E80810F5E7121D5CBF51F8043B40F845
:10053000043BAFF30080D20724BF11F8013B11F850
:1005400001CB48BF11F8012B24BF00F8013B00F894
:1005500001CB48BF00F8012B704702F0FF0343EACC
:10056000032242EA024200F024B84FF000020429BC
:10057000C0F0128010F0030C00F01B80CCF1040CD2
:10058000BCF1020F18BF00F8012BA8BF20F8022B06
:10059000A1EB0C0100F00DB85FEAC17C24BF00F8AC
:1005A000012B00F8012B48BF00F8012B70474FF0DA
:1005B000000200B5134694469646203922BFA0E8B3
:1005C0000C50A0E80C50B1F12001BFF4F7AF0907BF
:1005D00028BFA0E80C5048BF0CC05DF804EB8900B0
:1005E00028BF40F8042B08BF704748BF20F8022BF3
:1005F00011F0804F18BF00F8012B7047704770470B
:10060000704710B5203AC0F00B80B1E81850A0E850
:100610001850B1E81850A0E81850203ABFF4F5AFD0
:100620005FEA027C24BFB1E81850A0E8185044BF2C
:1006300018C918C0BDE810405FEA827C24BF51F899
:10064000043B40F8043B08BF7047D20728BF31F88D
:10065000023B48BF11F8012B28BF20F8023B48BFDE
:1006600000F8012B70470000004870472801002463
:100670007546FFF7F9FFAE4605006946534620F080
:100680000700854618B020B5FFF796FEBDE820406C
:100690004FF000064FF000074FF000084FF0000B3E
:1006A000AC46ACE8C009ACE8C009ACE8C009ACE8AD
:1006B000C00921F007018D46704710B50446AFF31D
:1006C00000802046BDE81040FFF75FBE01491820BA
:1006D000ABBEFEE7260002007047000000000000ED
:1006E000002861D0B0B52DED048BD0F81C11041D8D
:1006F00090ED430A0546204691ED028A91ED039A5A
:1007000009F01AFAB0EE480A204609F011FA05F18C
:100710005801204609F080F8204609F0CDF940F64E
:10072000F02005F18804C0F6010090ED001A40F6B3
:10073000F420C0F6010080FE411A90ED002A204608
:10074000B4EE402AF1EE10FA32FE010A85ED440AB9
:1007500009F0F2F9B0EE490A204609F0E9F905F18D
:10076000DC01204609F058F8204609F0A5F940F6CA
:10077000E82095ED451AC0F6010030EE010A90ED33
:10078000001A40F6EC20C0F6010080FE411A90ED00
:10079000002AB4EE402AF1EE10FA32FE010A85ED8D
:1007A000460ABDEC048BB0BD9FED010A704700BF47
:1007B0000000000000000000F0B581B02DED108BAE
:1007C00040F6EC2040F6E421C0F60100C0F601013D
:1007D0000B279FED5D8A90ED009A40F6E820C0F669
:1007E000010091ED00BA40F6F42190ED00AA40F628
:1007F000E020C0F60101C0F6010091ED00DA40F6FC
:10080000DC2190ED00CA40F6F020C0F60101C0F6F0
:10081000010091ED00FA40F6D42190ED00EA40F697
:10082000D820C0F60101C0F60100D1ED009A40F6D3
:10083000D021D0ED008A40F2D470C0F60101C2F29E
:10084000004000F66834D1ED00AA3AE095ED010AC7
:1008500095ED021AB4EE40BA95ED053A80FE4C0AC9
:10086000F1EE10FAB9B2B4EE41DA81FE4E1A3BFE57
:10087000000AF1EE10FA7DFE010A95ED031AB4EEBE
:10088000419A81FE4A1AF1EE10FA39FE012A95EDDD
:10089000041AB4EE41FA81FE681AF1EE10FAF4EE91
:1008A000439A83FE6A3A3FFE011AF1EE10FA79FE8E
:1008B000831A01F009FA00BF013704F59274172F6B
:1008C0003ED0781EC6B2304608F0B2F90546304632
:1008D00000F066FCD4F820010028EDD069780129E9
:1008E000B4D003291AD0022924D195ED010A20465B
:1008F0008CFE401AB4EE40BAF1EE10FA3BFE010A4B
:1009000084ED430AFFF7ECFEF0EE400AD4F8200134
:10091000B9B294ED430A01F0AFFACDE7B9B295ED63
:10092000030A80FE4A1AB4EE409AF1EE10FA39FE3C
:10093000010A02E0B9B2B0EE480A01F0B9FABBE729
:10094000BDEC108B01B0F0BD000000000000000005
:10095000FFF732FF02200EF04BF8F9E7000000002D
:10096000FEE70000000000000020704700000000CB
:10097000002070470000000010B543F2C87442F632
:10098000BC71C2F20044C2F20041002220460AF0CB
:10099000C7FD42F2BC712046C2F200410AF0B0FD30
:1009A000002010BD00000000F0B581B044F61C67C7
:1009B0000446C2F2004744F24C70C2F200400E46B8
:1009C0003D680A6828442146FFF782FD30684021CF
:1009D000054420463D60FFF7C8FD306840280ED032
:1009E00044F24C762946C2F20046304600F0E0F868
:1009F000002038604FF480713046FFF7D8FD43F295
:100A0000C8752146C2F2004528460AF079FD2846FD
:100A10000AF052FD002001B0F0BD0000000000000F
:100A20000020704700000000002800F08F800A4678
:100A30000629C0F08B8001785A2940F087804178E0
:100A4000A52940F08380811811F8023C7A2B40F0F0
:100A50007D8011F8011CA72978D193B24188994271
:100A600018BF704710B541F28454C2F20044631CB1
:100A7000984208D001461846B2F5807F28BF4FF44F
:100A80008072FFF725FD00F0BBFAC4F8040204F5FC
:100A9000017000F019FAA07984ED820A02281FD0B3
:100AA00001280FD000284DD16079022842D00128BA
:100AB00034D0002846D140F21000C2F200408169D3
:100AC0003DE000BF607902281CD0012814D0002826
:100AD00038D140F21000C2F2004001682FE000BFA0
:100AE0006079022820D0012812D058BB40F21000B3
:100AF000C2F20040C16822E040F21000C2F20040A1
:100B000041681CE040F21000C2F20040816816E02B
:100B100040F21000C2F20040016910E040F2100003
:100B2000C2F20040C1690AE040F21000C2F2004087
:100B3000416904E040F21000C2F20040016A09B1CC
:100B4000E01D884701202070BDE81040704700007C
:100B500070B500F055FA41F28454C2F2004404F535
:100B60000175C4F8040200F04BFAC4F80C0200202E
:100B7000C4F8140240F20121204604F50376FFF781
:100B800016FD284600F0A0F9304684ED820A00F0F8
:100B90009BF9601C4FF4807184ED840A0CF0F8FE20
:100BA00043F2BC70C2F20040046070BD000000005F
:100BB00041F28452C2F20042C2F81412FFF734BF6D
:100BC000002843D0082A18BF7047B0B50446B1F8D2
:100BD0000100BAEE090AF2EE090A0D46102140BAE8
:100BE0000EF0EEFC84ED020ABBEE0E0AE8782979DD
:100BF000F3EE0E0A000140EA11100C210EF0E0FCA9
:100C000084ED030ABBEE0C0A2879F3EE0C0A69792D
:100C100000F00F0041EA00200C210EF0D1FC84ED21
:100C2000040A0021E8792075287810284FEA10106E
:100C300038BF012160750120207604F12000617623
:100C400000F042F984ED090ABDE8B04070470000A9
:100C5000002843D0082A18BF7047B0B50446B1F841
:100C60000100BAEE090AF2EE090A0D46102140BA57
:100C70000EF0A6FC84ED020A9FED190AE8782979A6
:100C8000DFED180A000140EA11100C210EF098FC6B
:100C900084ED030A9FED140A2879DFED140A6979BF
:100CA00000F00F0041EA00200C210EF089FC84EDD9
:100CB000040A0021E8792075287810284FEA1010DE
:100CC00038BF012160750120207604F12000617693
:100CD00000F0FAF884ED090ABDE8B040704700BFA3
:100CE000000034C200003442000058C200005842E4
:100CF000002843D0082A18BF7047B0B50446B1F8A1
:100D00000100BAEE090AF2EE090A0D46102140BAB6
:100D10000EF056FC84ED020ABBEE0E0AE878297943
:100D2000F3EE0E0A000140EA11100C210EF048FC0F
:100D300084ED030ABAEE040A2879F2EE040A69790E
:100D400000F00F0041EA00200C210EF039FC84ED88
:100D5000040A0021E8792075287810284FEA10103D
:100D600038BF012160750120207604F120006176F2
:100D700000F0AAF884ED090ABDE8B0407047000011
:100D800043F6A420C2F2004001F0B6BC000000000F
:100D900043F61C30C2F2004001F0AEBC000000007F
:100DA00040F20F42D0F800C0C4F20202944511DCB8
:100DB0006F22C4F20202944522DC3F22C4F20202F6
:100DC000944539DC1022C4F2020294455AD02822FC
:100DD00054E000BF40F26F42C4F2020294451BDCB3
:100DE00040F23F42C4F2020294452DDC40F2104230
:100DF000C4F20202944545D040F228423EE000BFD2
:100E00009F22C4F20202944528DC7022C4F202023E
:100E1000944537D0882231E040F29F42C4F202026A
:100E2000944523DC40F27042C4F20202944529D07A
:100E300040F2884222E000BF4022C4F20202944500
:100E400020D058221AE000BF40F24042C4F2020211
:100E5000944517D040F2584210E000BFA022C4F2DF
:100E6000020294450ED0B82208E000BF40F2B8421A
:100E7000C4F20202944505D040F2A042C4F202023C
:100E8000944517D10CF0F8024AF6AB23103ACAF693
:100E9000AA23A2FB03310AA35F2AC1F302115B5C00
:100EA00040F2FF312CEA0101C36588BF043181653E
:100EB000084670472CF0FF0181650846704700BF67
:100EC000000610160006101610B582B041F2040E8E
:100ED000CEF2000EDEF80010009141F2A071DDF8B4
:100EE00000C0C2F2004102680B69009C0460DEF899
:100EF0000000019001980C6AA04202D2C86901303A
:100F0000C861ACEB020001EE103A00EE100A019845
:100F10000862B8EE411AB8EE400A80EE010A02B04B
:100F200010BD0000000000002DE9F04782B041F242
:100F3000040041F2A078CEF20000C2F2004801683D
:100F40000091006801900198D8E90721884202D2F7
:100F50000132C8F81C200198C8F8200000984FF012
:100F6000FF330021E2FB0301D8F818200023C8E971
:100F70000A01FFF735FA44F240270023C0F20F07B9
:100F800005463A460E46FFF72BFA044600FB17507B
:100F900044F6D3514FF47A72C1F262010023A0FBF0
:100FA0000109284631464FF47A7A4FEA9917C8E981
:100FB0000047FFF715FA00EE104A9FED0F2A90B296
:100FC000A8F80820B8EE401A00EE107AB8EE400AF1
:100FD000A1EE020A01EE100A04FB0AF09FED072AB7
:100FE000B8EE411A00EB9910C8F80C00A1EE020A05
:100FF00002B0BDE8F08700BF00007A446F12833A68
:101000002DE9F04F83B041F2040041F2A079CEF215
:101010000000C2F200490168019100680290029844
:10102000D9E90721884202D20132C9F81C2002986E
:10103000C9F8200001984FF0FF330021E2FB0301C3
:10104000D9F818200023C9E90A01FFF7C9F944F2C9
:1010500040280023C0F20F08054642468A46FFF7A3
:10106000BFF90746A0FB080144F6D3514FF47A724A
:10107000281AC1F26201A0FB010400232846514650
:10108000A6094FF47A7BC9E90076FFF7A9F906FBB8
:101090000BF0A9F80820E7FB082307FB0BF78018E3
:1010A00043F1000107EB9412C9F80C2003B0BDE82E
:1010B000F08F00000000000010B54EF6FC5141F228
:1010C0000004CEF20001CEF2000444F2402C4FF0B6
:1010D000000E0A68C0F20F0C42F080720A60C4F879
:1010E00004E000FB0CF0236844F6D35243F0010304
:1010F000236041F2A073C1F26202C2F20043A0FB7E
:1011000002214DF68362C4F21B321861A0FB020279
:1011100088095861900CC3E9060E60681862C3E93B
:101120000AEE10BD00000000704700000000000043
:10113000EFF3108072B600BFFEE700000000000071
:1011400044F60400C5F60200816841F002018160A6
:101150000168890409D4016889045CBF01685FEAF9
:10116000814102D401688904F2D570470000000073
:1011700043F69430C2F2004002F03ABC0000000096
:1011800043F63440C2F2004002F032BC00000000DE
:1011900043F6D440C2F2004002F02ABC0000000036
:1011A0000138C0B2152803D802A1085C704700BFFF
:1011B0000420704701020100000102010000030346
:1011C0000303030303030303030300000000000001
:1011D000B0B588B04FF00105A0B1012912D804467E
:1011E00043F2C070C2F2004001AA40F82140002042
:1011F00000900221CDE9040023C26946204602F096
:10120000AFFA18B1284608B0B0BD00BF204603F0C1
:10121000B7F818B10125284608B0B0BD0121002259
:10122000204602F0D9F90546002818BF01252846B6
:1012300008B0B0BD0000000010B568B1092A0BD29B
:1012400001600021C0E901110822C0E90321C0E9C1
:101250000511C0E9071110BD0024C5F6020400BF46
:101260000121204603F0A4F9C82002F0A1F9F7E714
:101270002DE9F04F81B02DED068B82B0012B164683
:10128000834600F0AF80002B40F03F84347804F0B8
:101290000F052846FFF784FF022800F23684074630
:1012A000B6F80100BAEE090AF2EE090A2109019125
:1012B00040BA10210EF084F940F6A02240F69423A3
:1012C000F0783179C0F60102C0F6010302EB870223
:1012D000B0EE408A03EB8703000192ED000A40EA7A
:1012E0001110D3ED000A0C210EF06AF9307940F6A6
:1012F000882240F67C23C0F60102C0F60103717912
:1013000000F00F0002EB870203EB8703B0EE409A78
:1013100041EA002092ED000AD3ED000A0C210EF004
:101320004FF9B0EE40AA41F68C59F0794FF0000821
:10133000C2F200494FF0000A0090102C38BF4FF065
:10134000010821E086ED028A009886ED039A86ED79
:1013500004AA307501987075002086F81980F06134
:10136000FFF7E2FDBCEEC00A10EE100A46F8200FAF
:101370003046FFF7A9FD86ED010A00BF0AF1010A18
:10138000BAF10A0F00F0C18359F82A000028F5D0FD
:1013900041685945F2D141780029EFD0C1F1000CE4
:1013A000A1F1010E002700EB8704E6687278AA42DB
:1013B000C8D0BE45E2D026697278AA42C2D00CEBF2
:1013C0000702961CDAD066697378AB42BAD0033252
:1013D000D4D0A6697278AA42B4D00437B942E2D117
:1013E000CCE700BFD1F8008008F0F850B0F1007FE2
:1013F00040F08B83718840F6E422C0F60102308809
:10140000B6F806904FBAB18840BA92ED000A40F69D
:10141000E0224DBAC0F601021021D2ED000A0EF012
:10142000CFF840F6F42040F6F021C0F60100C0F6F7
:101430000101B0EE408A90ED000AD1ED000A1021C2
:1014400038460EF0BDF840F6EC2040F6E821C0F634
:101450000100C0F60101B0EE409A90ED000AD1ED16
:10146000000A102128460EF0ABF8C8F3072041F619
:101470008C5CC2F2004CDCF800201AB1516859456E
:1014800000F08C80DCF804201AB15168594500F056
:10149000C180DCF808201AB15168594500F0F68087
:1014A000DCF80C201AB15168594500F02B81DCF8AA
:1014B00010201AB15168594500F06081DCF8142001
:1014C0001AB15168594500F09581DCF818201AB11D
:1014D0005168594500F0CA81DCF81C201AB15168E6
:1014E000594500F0FF81DCF820201AB151685945B8
:1014F00000F03482DCF824201AB15168594500F01C
:101500006782DCF828201AB15168594500F09882AA
:10151000DCF82C10002900F0F8824A685A4540F0A7
:10152000F4824A78002A00F0F082C2F1000CA2F1A5
:10153000010E002604E000BF0436B24200F0E5824E
:1015400001EB8604E5686B78834203D12B78032B8B
:1015500000F0AD82B64500F0D88225696B788342F1
:1015600003D12B78032B00F0A2820CEB06039D1C09
:1015700000F0CB8265696F78874203D12F78032F03
:1015800000F09582033300F0C082A5696B78834236
:10159000D2D12B78032BCFD189E200BF5378002B17
:1015A0003FF470AFC3F1000EA3F1010A002603E07F
:1015B0000436B3423FF466AF02EB8601CD686F7824
:1015C000874203D12F78032F00F07182B2453FF498
:1015D00059AF0D696F78874203D12F78032F00F040
:1015E00066820EEB0607BD1C3FF44CAF4D696C786C
:1015F000844203D12C78032C00F05982FC1C3FF468
:1016000041AF8D6969788142D2D129780329CFD140
:101610004DE200BF5378002B3FF43BAFC3F1000E07
:10162000A3F1010A002603E00436B3423FF431AFD0
:1016300002EB8601CD686F78874203D12F78032FA4
:1016400000F03582B2453FF424AF0D696F788742D0
:1016500003D12F78032F00F02A820EEB0607BD1C62
:101660003FF417AF4D696C78844203D12C78032C7A
:1016700000F01D82FC1C3FF40CAF8D69697881423B
:10168000D2D129780329CFD111E200BF5378002BA2
:101690003FF406AFC3F1000EA3F1010A002603E0F8
:1016A0000436B3423FF4FCAE02EB8601CD686F789E
:1016B000874203D12F78032F00F0F981B2453FF420
:1016C000EFAE0D696F78874203D12F78032F00F0BA
:1016D000EE810EEB0607BD1C3FF4E2AE4D696C785F
:1016E000844203D12C78032C00F0E181FC1C3FF4F0
:1016F000D7AE8D6969788142D2D129780329CFD1BB
:10170000D5E100BF5378002B3FF4D1AEC3F1000EFA
:10171000A3F1010A002603E00436B3423FF4C7AE4A
:1017200002EB8601CD686F78874203D12F78032FB3
:1017300000F0BD81B2453FF4BAAE0D696F788742C3
:1017400003D12F78032F00F0B2810EEB0607BD1CEA
:101750003FF4ADAE4D696C78844203D12C78032CF4
:1017600000F0A581FC1C3FF4A2AE8D69697881422E
:10177000D2D129780329CFD199E100BF5378002B2A
:101780003FF49CAEC3F1000EA3F1010A002603E072
:101790000436B3423FF492AE02EB8601CD686F7817
:1017A000874203D12F78032F00F08181B2453FF4A7
:1017B00085AE0D696F78874203D12F78032F00F033
:1017C00076810EEB0607BD1C3FF478AE4D696C7850
:1017D000844203D12C78032C00F06981FC1C3FF477
:1017E0006DAE8D6969788142D2D129780329CFD134
:1017F0005DE100BF5378002B3FF467AEC3F1000EEC
:10180000A3F1010A002603E00436B3423FF45DAEC3
:1018100002EB8601CD686F78874203D12F78032FC2
:1018200000F04581B2453FF450AE0D696F788742B4
:1018300003D12F78032F00F03A810EEB0607BD1C71
:101840003FF443AE4D696C78844203D12C78032C6D
:1018500000F02D81FC1C3FF438AE8D69697881421F
:10186000D2D129780329CFD121E100BF5378002BB1
:101870003FF432AEC3F1000EA3F1010A002603E0EB
:101880000436B3423FF428AE02EB8601CD686F7890
:10189000874203D12F78032F00F00981B2453FF42E
:1018A0001BAE0D696F78874203D12F78032F00F0AC
:1018B000FE800EEB0607BD1C3FF40EAE4D696C7842
:1018C000844203D12C78032C00F0F180FC1C3FF4FF
:1018D00003AE8D6969788142D2D129780329CFD1AD
:1018E000E5E000BF5378002B3FF4FDADC3F1000EDF
:1018F000A3F1010A002603E00436B3423FF4F3AD3E
:1019000002EB8601CD686F78874203D12F78032FD1
:1019100000F0CD80B2453FF4E6AD0D696F788742A7
:1019200003D12F78032F00F0C2800EEB0607BD1CF9
:101930003FF4D9AD4D696C78844203D12C78032CE7
:1019400000F0B580FC1C3FF4CEAD8D696978814212
:10195000D2D129780329CFD1A9E000BF5378002B39
:101960003FF4C8ADC3F1000EA3F1010A002603E065
:101970000436B3423FF4BEAD02EB8601CD686F780A
:10198000874203D12F78032F00F09180B2453FF4B6
:10199000B1AD0D696F78874203D12F78032F00F026
:1019A00086800EEB0607BD1C3FF4A4AD4D696C7834
:1019B000844202D12C78032C79D0FC1C3FF49AADE0
:1019C0008D6969788142D3D129780329D0D16EE01D
:1019D0005378002B3FF495ADC3F1000EA3F1010A3B
:1019E000002603E00436B3423FF48BAD02EB8601E0
:1019F000CD686F78874202D12F78032F57D0B24538
:101A00003FF47FAD0D696F78874202D12F78032FA5
:101A10004DD00EEB0607BD1C3FF473AD4D696C78DD
:101A2000844202D12C78032C41D0FC1C3FF469ADD8
:101A30008D6969788142D5D129780329D2D136E0E0
:101A40005378002B3FF464ADC3F1000EA3F1010AFB
:101A5000002603E00436B3423FF45AAD02EB8601A0
:101A6000CD686F78874202D12F78032F1FD0B245FF
:101A70003FF44EAD0D696F78874202D12F78032F66
:101A800015D00EEB0607BD1C3FF442AD4D696C78D6
:101A9000844202D12C78032C09D0FC1C3FF438ADD1
:101AA0008D6969788142D5D129780329D2D199FAF3
:101AB00089F0B2EE042A000C85ED028A01EE100ACC
:101AC00085ED039AC8F30540687508F47C1085ED30
:101AD000040AB0FA80F0B8EE411A40096876002096
:101AE000E86181EE021ABCEEC11A11EE101A2975D6
:101AF000FFF71AFABCEEC00A10EE100A45F8200FE4
:101B00002846FFF7E1F985ED010A02B0BDEC068B2E
:101B100001B0BDE8F08F00002DE9F0472DED108BEE
:101B20008CB08046B0EE42EAC8B2B0EE61BAB0EE18
:101B300041CAB0EE608AB0EE409A8946FFF730FBAA
:101B4000022800F2B580B2EE091A0646BAEE090A7A
:101B500040F6A020C0F6010040F6942489FE411A08
:101B600000EB8600B4EE490AC0F60104F1EE10FA6B
:101B700090ED00AA30FE010AB0EE4ADAB4EE48AAAF
:101B8000F1EE10FA05DC04EB860090ED001A81FE00
:101B900048DA40F6882040F67C2AC0F60100C0F6FC
:101BA000010A00EB860090ED008AB0EE489AB4EE90
:101BB0004E8AF1EE10FA05DC0AEB860090ED001A71
:101BC00081FE4E9AB1EE04EA9FED3CFA8CFE4F1A6C
:101BD000FAEE090A10208BFE4E2A9FED39BA81FEDB
:101BE0000BCAB2EE091AC2FE0B8A0CF0B1FE04EB6E
:101BF0008601B0EE4D0AF0EE4A0A074691ED001A52
:101C00000C200CF0A5FEB0EE4C0AF0EE4B0AB0EE44
:101C10004F1A04460C200CF09BFEB0EE680AF0EE62
:101C20004B0AB0EE4E1A05460C200CF091FE0AEB62
:101C30008601B0EE490AF0EE480A064691ED001A18
:101C40000C200CF085FE390A8DF8041021098DF85E
:101C50000610C5F303218DF80B0041EA04118DF83D
:101C6000071031098DF80910C0F30321002041EA63
:101C700006118DF80A10CDE90400082101AACDE96A
:101C80000610CDE90800CDE90A0003A940468DF809
:101C900005708DF80850CDF80C9001F0E5FC002897
:101CA00018BF012040000CB0BDEC108BBDE8F087E0
:101CB00002200CB0BDEC108BBDE8F0870000FA43A9
:101CC00000000000000000002DE9F04381B02DED80
:101CD000108B8CB040F6E0228046C0F60102102046
:101CE000894692ED003A40F6E422C0F6010283FEF6
:101CF000405A92ED004A40F6F022C0F60102B4EEDE
:101D0000404AF1EE10FA92ED00BA40F6F42234FEA9
:101D1000050AC0F601028BFE605A92ED00CA40F639
:101D2000E822C0F60102B4EE60CAF1EE10FA92EDBC
:101D3000008A40F6EC223CFE05DAC0F6010288FE7D
:101D4000425AF0EE440A92ED009A40F6D822C0F6CC
:101D50000102B4EE429AF1EE10FA92ED00EA40F67A
:101D6000DC22C0F601028EFE412A39FE05AA92ED60
:101D700000FA40F6D422C0F60102B4EE41FAF1EEC8
:101D800010FAD2ED009A40F6D0227FFE028AC0F609
:101D90000102F4EE619AD2ED00AA8AFEE11AF1EE98
:101DA00010FA79FE81BAB0EE431A0CF0D1FDB0EE14
:101DB0004D0AF0EE4C0AB0EE4B1A064610200CF01D
:101DC000C7FDB0EE680AF0EE4F0AB0EE4E1A0746B5
:101DD00010200CF0BDFDB0EE6B0AF0EE690AB0EE1B
:101DE0006A1A044610200CF0B3FDB0EE4A0AF0EE79
:101DF000490AB0EE481A054610200CF0A9FD4FF62E
:101E00000072310AC0F2FF028DF8041002EA0020CD
:101E100001AA40EA0900390A8DF80610210A8DF856
:101E20000810290A8DF80A1000F1807003904FF015
:101E300080400490002005900821CDE90610CDE9EE
:101E40000800CDE90A0003A940468DF805608DF829
:101E500007708DF809408DF80B5001F005FC002843
:101E600018BF012040000CB0BDEC108B01B0BDE8E4
:101E7000F0830000000000009FED041AB0EE602A1D
:101E8000F0EE410AF0EE411AFFF746BE00000000F6
:101E9000DFED050AB0EE402AB0EE600AB0EE601A3F
:101EA000F0EE601AFFF738BE0000000000000000EE
:101EB000DFED050AB0EE402AB0EE600AB0EE601A1F
:101EC000F0EE601AFFF700BF000000000000000005
:101ED00090ED001AB5EE401AF1EE10FA15DDB7EEEE
:101EE000002AB4EE421AF1EE10FAA8BF704732EEA3
:101EF000412A91ED013A22EE032AA1EE002A81ED5A
:101F0000002A81ED012AB0EE420A7047000000006D
:101F100080ED000A704700002DE9F041044602F010
:101F20005FFB1CB3054694F83500022822D140F22D
:101F30000F472668C4F2020740F26F48BE426FF0B6
:101F40000E00C4F202081DDC6F21C4F202018E42B1
:101F50002ADC3F21C4F202018E4241DC1021C4F28E
:101F600002018E4263D028215CE000BF0120BDE861
:101F7000F08100BF802060650120002184F83410CA
:101F8000BDE8F08146451BDC40F23F41C4F202014E
:101F90008E422DDC40F21041C4F202018E4246D046
:101FA00040F228413EE000BF9F21C4F202018E4270
:101FB00028DC7021C4F202018E4238D0882131E041
:101FC00040F29F41C4F202018E4223DC40F2704194
:101FD000C4F202018E422AD040F2884122E000BFC2
:101FE0004021C4F202018E4221D058211AE000BFE4
:101FF00040F24041C4F202018E4218D040F25841F2
:1020000010E000BFA021C4F202018E420FD0B8211F
:1020100008E000BF40F2B841C4F202018E4206D08F
:1020200040F2A041C4F202018E42314607D131464E
:10203000306820F01E0041F8140B6FF080000A6831
:10204000464500EA020008601ADC9F20C4F2020044
:10205000864233DC5720C4F2020086425ADC10204C
:10206000C4F20200864200F097802820C4F20200E9
:10207000864200F091804020C4F202008AE000BF56
:1020800045F22F40C5F6020086422DDC40F2B740F3
:10209000C4F2020086424BDC40F27040C4F20200FF
:1020A000864279D040F28840C4F20200864273D062
:1020B00040F2A040C4F202006CE000BF40F22740B2
:1020C000C4F20200864243DCA020C4F20200864231
:1020D00062D0B820C4F2020086425DD040F21040C7
:1020E000C4F2020056E000BF45F26B40C5F60200A4
:1020F00086423FDC45F23040C5F6020086424BD0B6
:1021000045F24440C5F60200864245D045F25840AB
:102110003EE000BF5820C4F2020086423CD070204E
:10212000C4F20200864237D08820C4F2020031E0B7
:1021300040F2B840C4F2020086422DD045F2084079
:10214000C5F60200864227D045F21C4020E000BFC1
:1021500040F22840C4F2020086421DD040F24040C6
:10216000C4F20200864217D040F25840C4F2020086
:1021700010E000BF45F26C40C5F6020086420BD06D
:1021800045F29440C5F60200864205D045F28040F3
:10219000C5F60200864204D1206E016821F48071E8
:1021A0000160306820F00100306000BF3068C00777
:1021B00010D002F015FA401B0628F7D320206065E6
:1021C000032084F835000120002184F83410BDE894
:1021D000F08100BF20680821B8424FF03F0211DCB7
:1021E0006F23C4F2020398421EDC3F23C4F20203B1
:1021F000984235DC1023C4F20203984257D02823BA
:1022000050E000BF40451BDC40F23F43C4F20203F4
:1022100098422DDC40F21043C4F20203984246D0AB
:1022200040F228433EE000BF9F23C4F202039842DD
:1022300028DC7023C4F20203984238D0882331E0AE
:1022400040F29F43C4F20203984223DC40F2704301
:10225000C4F2020398422AD040F2884322E000BF31
:102260004023C4F20203984221D058231AE000BF51
:1022700040F24043C4F20203984218D040F258435F
:1022800010E000BFA023C4F2020398420FD0B8238D
:1022900008E000BF40F2A043C4F20203984206D017
:1022A00040F2B843C4F20203984240F0C580D4E93A
:1022B000163707F01F07404502FA07F25A5019DC9B
:1022C0009F21C4F20201884232DC5721C4F202018C
:1022D000884259DC1021C4F20201884200F0968045
:1022E0002821C4F20201884200F090804021C4F20B
:1022F000020189E045F22F41C5F6020188422DDC3A
:1023000040F2B741C4F2020188424BDC40F2704116
:10231000C4F20201884279D040F28841C4F202013D
:10232000884273D040F2A041C4F202016CE000BFC9
:1023300040F22741C4F20201884243DCA021C4F2EA
:102340000201884262D0B821C4F2020188425DD005
:1023500040F21041C4F2020156E000BF45F26B4169
:10236000C5F6020188423FDC45F23041C5F6020164
:1023700088424BD045F24441C5F60201884245D01F
:1023800045F258413EE000BF5821C4F202018842A4
:102390003CD07021C4F20201884237D08821C4F2B7
:1023A000020131E040F2B841C4F2020188422DD06E
:1023B00045F20841C5F60201884227D045F21C418A
:1023C00020E000BF40F22841C4F2020188421DD043
:1023D00040F24041C4F20201884217D040F2584115
:1023E000C4F2020110E000BF45F26C41C5F60201E3
:1023F00088420BD045F29441C5F60201884205D0CF
:1024000045F28041C5F6020188420BD1616EA26E91
:10241000E06E4A6030B1016821F480710160D4E956
:102420001C014160012084F835000020002184F85F
:102430003410BDE8F08100BF0421012237E700001D
:10244000F0B190F83510022918D180B540F20F4252
:102450000168C4F20202914214DC6F23C4F2020349
:10246000994225DC3F23C4F2020399423CDC10234D
:10247000C4F2020399425DD0282357E080214165D0
:102480000120704740F26F43C4F2020399421BDC03
:1024900040F23F43C4F2020399422DDC40F2104364
:1024A000C4F20203994245D040F228433EE000BF07
:1024B0009F23C4F20203994228DC7023C4F2020372
:1024C000994237D0882331E040F29F43C4F202039F
:1024D000994223DC40F27043C4F20203994229D0AE
:1024E00040F2884322E000BF4023C4F20203994235
:1024F00020D058231AE000BF40F24043C4F2020348
:10250000994217D040F2584310E000BFA023C4F214
:10251000020399420ED0B82308E000BF40F2B8434E
:10252000C4F20203994205D040F2A043C4F2020370
:10253000994275D191424FF0040280F8352011DCA8
:102540006F20C4F20200814222DC3F20C4F202006C
:10255000814239DC1020C4F20200814259D0282087
:1025600054E000BF40F26F40C4F2020081421BDC25
:1025700040F23F40C4F2020081422DDC40F21040A4
:10258000C4F20200814244D040F228403EE000BF45
:102590009F20C4F20200814228DC7020C4F20200B5
:1025A000814236D0882031E040F29F40C4F20200E0
:1025B000814223DC40F27040C4F20200814228D004
:1025C00040F2884022E000BF4020C4F20200814275
:1025D0001FD058201AE000BF40F24040C4F2020071
:1025E000814216D040F2584010E000BFA020C4F253
:1025F000020081420DD0B82008E000BF40F2B84090
:10260000C4F20200814204D040F2A040C4F20200B1
:102610008142086820F001000860002080BD00BFF2
:102620000A6822F00E020A6045F25742C5F602021D
:1026300091420A6822F001020A600FDC45F22F4243
:10264000C5F60202914219DC45F20842C5F60202C3
:10265000914229D045F21C4222E000BF45F27F4260
:10266000C5F60202914213DC45F25842C5F6020259
:10267000914219D045F26C4212E000BF45F230425F
:10268000C5F6020291420FD045F2444208E000BF75
:1026900045F29442C5F60202914205D045F28042CD
:1026A000C5F6020291421AD1D0E9181CD0E916E30E
:1026B0000A6822F480720A6003F01F01012202FA04
:1026C00001F1CEF80410816ECCF80410C16E31B166
:1026D0000A6822F480720A60D0E91C124A60012163
:1026E00080F83510016D0022002980F8342094D044
:1026F0008847002080BD00002DE9F04782B000210E
:10270000019140F2080148F2B513C2F20041C1F64E
:102710004E33856D40F26F490A680168C4F20209C0
:102720002E68A2FB032849452A6815DC9F22C4F2C3
:10273000020291422CDC5722C4F20202914251DC87
:102740001022C4F2020291427BD02822C4F202027B
:10275000914276D040226FE045F22F43C5F6020346
:10276000994229DC40F2B743C4F20203994245DCA6
:1027700040F27042C4F20202914262D040F28842BA
:10278000C4F2020291425CD040F2A04254E000BF89
:1027900040F22742C4F2020291423FDCA022C4F27E
:1027A000020291424DD0B822C4F20202914248D0B6
:1027B00040F2104240E000BF45F26B43C5F6020311
:1027C000994275DC45F23043C5F60203994200F0A8
:1027D000828045F24443C5F6020399427BD045F21C
:1027E000584373E05822C4F20202914229D0702269
:1027F000C4F20202914224D088221DE040F2B84384
:10280000C4F2020399421CD045F20843C5F6020304
:10281000994260D045F21C4358E000BF40F2284284
:10282000C4F2020291420CD040F24042C4F20202D1
:10283000914206D040F25842C4F20202914240F066
:102840005383C26D082302F01F0240F20F4A9340E7
:10285000C4F2020A334200F0DE8051454FF0040416
:1028600012DC6F27C4F20207B9426DDC3F27C4F2C5
:102870000207B94200F39C801027C4F20207B94254
:1028800000F0BD802827B5E0494569DC40F23F47AC
:10289000C4F20207B94200F3938040F21047C4F239
:1028A0000207B94200F0AB8040F22847A2E000BF27
:1028B00045F26C43C5F6020399420CD045F28043C1
:1028C000C5F60203994206D045F29443C5F60203C9
:1028D000994240F009830B68C76D07F01F07042673
:1028E000BE40164218BF13F0040423D10226BE4096
:1028F000164218BF13F0020442D1FA40120740F109
:10290000F38213F0080200F0EF820A6822F00E0250
:102910000A60012101FA07F26A60416580F835100A
:10292000C16C00294FF0000280F8342040F0D882BA
:10293000DAE200BF1A046E6034D49A0636D40A680C
:1029400022F004020A6031E09F27C4F20207B94274
:1029500040DC7027C4F20207B94250D0882749E012
:1029600040F29F47C4F20207B9423BDC40F2704795
:10297000C4F20207B94242D040F288473AE000BFB1
:102980001A046E6000F1B4829A0600F1B5820A68FA
:1029900022F00A020A60012180F83510002180F837
:1029A0003410A9E2D90301D4816C98E2016C96E25B
:1029B0004027C4F20207B94221D058271AE000BFCD
:1029C00040F24047C4F20207B94218D040F25847DB
:1029D00010E000BFA027C4F20207B9420FD0B82709
:1029E00008E000BF40F2A047C4F20207B94206D097
:1029F00040F2B847C4F20207B94218BF08240F6872
:102A0000274208D00F6827F004070F60AB60436DC2
:102A100043F0010343650123934033426FD0514596
:102A200010DC6F27C4F20207B9421DDC3F27C4F255
:102A30000207B94234DC1027C4F20207B94256D06B
:102A400028274FE049451BDC40F23F47C4F202070C
:102A5000B9422DDC40F21047C4F20207B94246D019
:102A600040F228473EE000BF9F27C4F20207B94268
:102A700028DC7027C4F20207B94238D0882731E039
:102A800040F29F47C4F20207B94223DC40F270478C
:102A9000C4F20207B9422AD040F2884722E000BFC0
:102AA0004027C4F20207B94221D058271AE000BFDC
:102AB00040F24047C4F20207B94218D040F25847EA
:102AC00010E000BFA027C4F20207B9420FD0B82718
:102AD00008E000BF40F2A047C4F20207B94206D0A6
:102AE00040F2B847C4F20207B94240F007824F698A
:102AF0003F0604D5AB60436D43F0020343650423F6
:102B0000934033426FD0514510DC6F27C4F2020767
:102B1000B9421DDC3F27C4F20207B94234DC10275A
:102B2000C4F20207B94256D028274FE049451BDCC2
:102B300040F23F47C4F20207B9422DDC40F2104791
:102B4000C4F20207B94246D040F228473EE000BF37
:102B50009F27C4F20207B94228DC7027C4F202079B
:102B6000B94238D0882731E040F29F47C4F20207CB
:102B7000B94223DC40F27047C4F20207B9422AD0BE
:102B800040F2884722E000BF4027C4F20207B94262
:102B900021D058271AE000BF40F24047C4F2020794
:102BA000B94218D040F2584710E000BFA027C4F245
:102BB0000207B9420FD0B82708E000BF40F2A04793
:102BC000C4F20207B94206D040F2B847C4F2020785
:102BD000B94240F09B810F68BF0704D5AB60436DDD
:102BE00043F004034365102303FA02F2324200F07B
:102BF000828051454FF0080310DC6F27C4F20207B2
:102C0000B9421DDC3F27C4F20207B94234DC102769
:102C1000C4F20207B94256D028274FE049451BDCD1
:102C200040F23F47C4F20207B9422DDC40F21047A0
:102C3000C4F20207B94246D040F228473EE000BF46
:102C40009F27C4F20207B94228DC7027C4F20207AA
:102C5000B94238D0882731E040F29F47C4F20207DA
:102C6000B94223DC40F27047C4F20207B9422AD0CD
:102C700040F2884722E000BF4027C4F20207B94271
:102C800021D058271AE000BF40F24047C4F20207A3
:102C9000B94218D040F2584710E000BFA027C4F254
:102CA0000207B9420FD0B82708E000BF40F2A047A2
:102CB000C4F20207B94206D040F2B847C4F2020794
:102CC000B94218BF04230F681F4214D0AA600A68D3
:102CD00052030A6808D4D20508D40A6822F0080210
:102CE0000A60016C21B906E0110351D4016C11B1E5
:102CF000044688472046C16D01F01F02202101FAD9
:102D000002F3334200F0AF8001681027514511DC17
:102D10006F26C4F20206B1421EDC3F26C4F2020650
:102D2000B14239DC1026C4F20206B1425BD028263B
:102D300054E000BF49451BDC40F23F46C4F20206A6
:102D4000B14231DC40F21046C4F20206B1424AD030
:102D500040F2284642E000BF9F26C4F20206B1427C
:102D60002CDC7026C4F20206B1423CD0882635E045
:102D700040F29F46C4F20206B14227DC40F27046A0
:102D8000C4F20206B1422ED040F2884626E000BFCF
:102D9000816C0029ACD1AEE74026C4F20206B142F4
:102DA00021D058261AE000BF40F24046C4F2020685
:102DB000B14218D040F2584610E000BFA026C4F23D
:102DC0000206B1420FD0B82608E000BF40F2A0468C
:102DD000C4F20206B14206D040F2B846C4F202067E
:102DE000B14218BF02270E683E423CD0AB6090F85B
:102DF0003530042B0B681DD123F016030B604B6993
:102E000023F080034B61036C0BB9836C1BB10B681F
:102E100023F008030B603F219140A960012180F855
:102E20003510016D00294FF0000280F8342057D191
:102E30005AE000BF5A030A680CD4D2050ED40A68BF
:102E400022F010020A60012180F83510002180F87C
:102E5000341003E0110301D4416C00E0C16B11B1E7
:102E6000044688472046416D00293DD0416DC90781
:102E700034D0042180F8351001684FEA98220B689D
:102E800023F001030B60019B0133019393421AD895
:102E90000B68DB0717D0019B01330193934212D8D3
:102EA0000B68DB070FD0019B0133019393420AD8D3
:102EB0000B68DB0707D0019B01330193934202D8D3
:102EC0000B68DB07DFD10968C9074FF0030108BFB2
:102ED000012180F83510002180F83410C16C19B13F
:102EE00002B0BDE8F047084702B0BDE8F08700BF78
:102EF000D90301D4416CF2E7C16BF0E70B680423FE
:102F0000934033427FF4FFAD6DE600BF0B686AE685
:102F10002DE9F041044601F063FBFCB140F26F483B
:102F200005462068C4F2020840451BDC9F21C4F21C
:102F30000201884232DC5721C4F20201884259DC86
:102F40001021C4F20201884200F083802821C4F2DB
:102F50000201884200F07D80402175E00120BDE83B
:102F6000F08100BF45F22F41C5F60201884229DCFD
:102F700040F2B741C4F20201884247DC40F270419E
:102F8000C4F20201884264D040F28841C4F20201D6
:102F900088425ED040F2A04156E000BF40F2274197
:102FA000C4F20201884241DCA021C4F2020188423D
:102FB0004FD0B821C4F2020188424AD040F21041F9
:102FC00042E000BF45F26B41C5F60201884200F3C2
:102FD000D18045F23041C5F60201884200F0DD8023
:102FE00045F24441C5F60201884200F0D68045F220
:102FF0005841CDE05821C4F20201884229D0702105
:10300000C4F20201884224D088211DE040F2B84178
:10301000C4F2020188421CD045F20841C5F6020103
:10302000884200F0BA8045F21C41B1E040F22841EC
:10303000C4F2020188420CD040F24041C4F20201C5
:10304000884206D040F25841C4F20201884240F062
:103050003981022184F83510002184F83410016888
:1030600021F00101016000BF20680168C9070DD08F
:1030700001F0B6FA401B0628F6D320206065032035
:1030800084F835000120BDE8F08100BF48F23F021E
:1030900004F108060168CFF61062114065694CCE54
:1030A0001143A2691943E3693143266A0D43616AFA
:1030B0002B43042943EA060343EA020303D1D4E97C
:1030C0000B652E4333436568A5F12906292E00F2CE
:1030D0003182DFE816F02B002B002B002B002B0099
:1030E0002B002F022F022F022F022F022F022F025E
:1030F0002F022F022F022F022F022F022F022F0248
:103100002F022B002B002B002B002F022F022F024F
:103110002F022B002B002F022F022F022F022F0233
:103120002F022B002B002B002B0000BF43F4801339
:1031300003600429436923F0070341EA030140F0D7
:10314000DD80D4E90A53002B41EA050100F0D68066
:10315000B2F5005F00F0B880002A40F0C180022D77
:1031600000F0C180012D00F0B580002D00F0BB8083
:10317000C4E000BF45F26C41C5F6020188420CD0A4
:1031800045F28041C5F60201884206D045F29441DD
:10319000C5F60201884240F0958004F1080E022134
:1031A00084F83510002184F834100168A3699EE882
:1031B0000450A2F18005E769B5FA85F566696D09E5
:1031C000402A4FEA853543EA07026FF3101142EABD
:1031D000060208BF102541EADC0142EA0E02236A1A
:1031E000294341EAD20141EA131140F80819C0B25B
:1031F000CD2148433C2101EA9020E0652046FDF7BF
:10320000CFFDE16D012201F01F0102FA01F14160E1
:103210002068404500F381809F21C4F2020188426A
:1032200014DC5721C4F20201884227DC1021C4F2C9
:103230000201884200F0C7802821C4F202018842BE
:1032400000F0C1804021C4F20201B9E040F2274100
:10325000C4F20201884221DCA021C4F202018842AA
:1032600000F0B180B821C4F20201884200F0AB80C6
:1032700040F21041C4F20201A2E000BF5821C4F2A2
:103280000201884200F09F807021C4F2020188424E
:1032900000F099808821C4F2020191E040F22841B7
:1032A000C4F20201884200F08E8040F24041C4F234
:1032B0000201884200F0878040F25841C4F20201C6
:1032C0007EE000BF4020D9E6032D17D8DFE805F0E7
:1032D0000E0B0E02A3F1C072B2FA82F2520904E0A0
:1032E000032D03D30AD1C3F300623AB140206065D5
:1032F000012084F83500BDE8F08100BF416120461F
:10330000FDF74EFDE16D3F2201F01F0102FA01F1D0
:103310008160206840457FF77FAF45F22F41C5F6B9
:103320000201884216DC40F2B741C4F20201884231
:1033300026DC40F27041C4F20201884243D040F2E0
:103340008841C4F2020188423DD040F2A041C4F25B
:10335000020135E045F26B41C5F6020188421FDCEF
:1033600045F23041C5F6020188422CD045F2444175
:10337000C5F60201884226D045F258411EE000BF42
:1033800040F2B841C4F2020188421CD045F2084123
:10339000C5F60201884216D045F21C410EE000BF7E
:1033A00045F26C41C5F6020188420CD045F29441C9
:1033B000C5F60201884206D045F28041C5F60201F9
:1033C000884240F0E18045F2574C45F6FC0EC5F6C8
:1033D000020CC5F6020E60450EDC45F22F41C5F623
:1033E0000201884218DC45F20841C5F60201884214
:1033F00028D045F21C4121E045F27F41C5F602018B
:10340000884213DC45F25841C5F60201884219D0C2
:1034100045F26C4112E000BF45F23041C5F60201B1
:1034200088420FD045F2444108E000BF45F2944184
:10343000C5F60201884205D045F28041C5F6020179
:10344000884247D100F0FC014CF6CD420839CCF659
:10345000CC42A1FB0212AEF1FC05AEF17C061309D1
:10346000A26803F01F01802A4FF0010205EB8305DB
:10347000256602FA01F26666A26605D10020606048
:10348000286072601EE000BF6368D9B25F1E072F1C
:103490002960726016D84E1E082E19D260450EF1B2
:1034A000440237DC45F22F41C5F60201884249DC6F
:1034B00045F20841C5F60201884259D045F21C4147
:1034C00052E000BF00206067C4E91B005CE000BF61
:1034D000E06E54E000F0F8014AF6AB221039CAF66B
:1034E000AA22A1FB021240F20F43C4F202030825F4
:1034F0001109984203F1AA060B4688BF05EB121387
:1035000040F60005B042C4F2020505F1800628BF6E
:103510000B46A5E745F27F41C5F6020188421BDC58
:1035200045F25841C5F60201884221D045F26C416E
:103530001AE000BF25F00307742F08BF43F480137F
:10354000F6E500BF45F23041C5F6020188420FD0D2
:1035500045F2444108E000BF45F28041C5F6020152
:10356000884205D045F29441C5F60201884213D144
:103570000EEB83000121E066B14022676167002104
:103580000160D4E91C01416000206065012184F8DC
:103590003510BDE8F08100BF40F60000C4F2020023
:1035A00000F1FC0E00F5A072E2E700000000000050
:1035B000B0B5044601F014F840F200010546C2F22D
:1035C0000041621C097818BF0C4400BF01F008F8E4
:1035D000401BA042FAD3B0BD90F89830013B012BBC
:1035E0000ED80068836D0B4212D0836D0B408B4266
:1035F00032D1C36D43F00203C3658B050ED412E0D4
:1036000000F19C01012002220B681A430A607047F6
:10361000C36D43F00103C3658B0504D5D0F8E030DA
:103620001343C0F8E0304B0504D5D0F8E4301A431A
:10363000C0F8E4204FF6FF72436DC3F6CF720A4024
:103640001A4342658A0F4AF614010020C4F20001B1
:103650000B681A430A6070470323C3658B05DDD4EA
:10366000E1E700000000000090F89830022B1BD129
:103670002DE9F0430668D6F8C03013F07C5F1BD00C
:10368000D6F8C4309B0221D4D6F8C4300C69C3F3F9
:10369000044CD1E90035002D8D6821D023432B4304
:1036A00043F0804E20E000BFD0F89C1041F00801AC
:1036B000C0F89C1001207047D0F89C1041F0200108
:1036C000C0F89C100120BDE8F08300BFD0F89C102A
:1036D00041F40071C0F89C100120BDE8F08300BFE8
:1036E00044EA834343EA050E836ED0F88450D1E95F
:1036F00007970CFB03F48B6949EA0767D1F814803C
:10370000D1F80C901F4305EB840347EA080745F8FE
:1037100024E047EA09475F60CF6887B140F6343557
:10372000083303320024C0F6010500BF171957F80B
:10373000037C1F51CF680434EF5DBC42F6D30121F6
:1037400001FA0CF1C6F8D010C0F894100020BDE8C2
:10375000F08300000000000070470000000000003F
:1037600090F89820013A012A0CD880B50A68002AFE
:10377000CA680FD00B69072A43EA427E18D18B69C9
:103780001BE000BFD0F89C1041F00201C0F89C1073
:1037900001207047072A19D10A69D1E906C312042A
:1037A00042EA032242EA0C0242F0605218E000BFF3
:1037B000D1F808C04B6943EA8C73006F496800EB8D
:1037C000C10240F831E05360002080BD8B68D1E930
:1037D00004CE9B0743EAC26242EA0C4242EA0E026E
:1037E0004968C06E40F82120002080BD0000000024
:1037F000704700000000000070470000000000005B
:103800002DE9F04390F89870022F11D1402919D179
:103810000668D6F8A07017F4FE0F2FD0D6F8A47063
:103820007F0635D0D6F8A470FF013BD400273CE0DA
:10383000D0F89C1041F00801C0F89C100120BDE8B0
:10384000F08300BF41290FD10668D6F8B07017F495
:10385000FE0F13D0D6F8B4707F0619D0D6F8B47026
:10386000FF012BD400272CE0076D8F4206D900F111
:103870007C05466D4FF0000C0F462BE0D0F89C10F5
:1038800041F02001C0F89C100120BDE8F08300BF8A
:10389000D0F89C1041F48071C0F89C100120BDE864
:1038A000F08300BFD6F8A070FF0FD6F8A46000F137
:1038B0007405C6F305263E44476C0AE0D6F8B0709E
:1038C000FF0FD6F8B46000F17805C6F305263E4434
:1038D000C76CB44607FB06F42D6805EB840E55F85B
:1038E000247017F08047576055F8247027F0604621
:1038F00008BFC7F38A46166055F8247007F00057D2
:10390000976055F8244004F000441461BEF8044068
:10391000D461BEF8064014F00F04D460DEF8044011
:1039200004F480145461DEF8044004F4001494613B
:103930009EF8074004F07F041462DEF804404FEA6A
:10394000D474546228D040F634380024C0F60108FC
:103950000EEB0406651C377A1F55D76818F80770F8
:10396000BD4219D21F19757A7D70D56818F8059077
:10397000A51C4D453FBFB57ABD70D56818F80590B8
:103980003CBFE51C4D4507D2F57A0434FD70D5687F
:1039900018F80550AC42DBD3402905D10068C0F8C7
:1039A000A8C00020BDE8F083412905D10068C0F817
:1039B000B8C00020BDE8F0831F2909D800680122A3
:1039C00002FA01F1C0F898100020BDE8F08300BFB2
:1039D000006801F01F01012202FA01F1C0F89C10F9
:1039E0000020BDE8F08300007047000000000000E8
:1039F0002DE9F04F87B004464AF61000C4F20000EB
:103A000001684AF61400C4F20000026820680A4007
:103A1000D0F850B0D0F85490056D466D036D029308
:103A2000436D0193036D0693436D0593036D0493FA
:103A3000436D0393D0F854A0D0F850805FEACA5386
:103A400011D518F480710ED04FF4807101654AF6DB
:103A500010010020C4F20001174608602046FFF75D
:103A6000C3FF3A4620685FEA4A510BEA090B4FEA66
:103A7000827740F14B814AF6100918F48061C4F254
:103A8000000910D0D0F8DC100092D0F8E4201140EA
:103A90004FF4806202650020C9F80000204600F063
:103AA000A3FC009A206805EA06050BF4704657B19E
:103AB0000021016502F00300C9F8000020463946E4
:103AC000FFF74AFE2068DDE9012101EA020705F05F
:103AD0000F0546B106650020C9F8000020463146B2
:103AE00000F08AFC206807F0F00645B1056500206B
:103AF000C9F800002046294600F0F2FB206846B1D4
:103B000006650020C9F800002046314600F00CFC94
:103B100020685FEA0A510CD518F4006109D04FF40F
:103B2000006101650020C9F80000204600F068FC33
:103B300020685FEA8A5111D518F400710ED0D0F8D0
:103B4000D810D0F8E02011404FF400720265002038
:103B5000C9F80000204600F04BFC20685FEA0A31FB
:103B60000CD518F4002109D04FF400210165002084
:103B7000C9F80000204600F0AFFB20685FEACA31B8
:103B80000CD518F4803109D04FF480310165002044
:103B9000C9F80000204600F023FC20685FEA4A31A3
:103BA000DDE9032101EA02050CD518F4802109D0D2
:103BB0004FF4802101650020C9F80000204600F084
:103BC0000BFC20685FEA8A31DDE9052102EA010287
:103BD00005F060710ED518F400330BD04FF40033AC
:103BE00003650023C9F80030D4F89C3043F080030B
:103BF000C4F89C3002F0715539B101650020C9F854
:103C000000002046FFF7F8FD206845B1056500215A
:103C1000C9F80010D4F89C102943C4F89C10A9F5E9
:103C2000016188420AD0D4F89C0000286AD020465E
:103C300007B0BDE8F04FFFF7DBBD00BF60688168EB
:103C40008907F0D0016A426A036A476A114003EAB1
:103C5000070202F03005D0F82080D0F82490D0F888
:103C600020B0466A026A069211F00F01426A05927C
:103C7000D0F824A0026A049203D00162204600F02A
:103C80009FFB08EA09072DB16068294605622046B6
:103C900000F09EFB5FEA4A6006EA0B0607F4C07577
:103CA0000ED5049810F040000AD060684023C16B24
:103CB000C26B090C02F03F020362204600F084FB55
:103CC000DDE9051000EA010706F4FC462DB1606845
:103CD00029460562204600F06FFB07F4F02036B15C
:103CE00061680E62D4F89C103143C4F89C1000281F
:103CF00099D061680862D4F89C100843C4F89C000D
:103D000091E700BF07B0BDE8F08F00BF4AF6100989
:103D1000C4F20009002F05EA06050BF470467FF493
:103D2000C7AED0E600000000F0B12DE9F04F83B03F
:103D30004AF200080446C4F200080068404533D047
:103D400094F89810B9B3816921F01001816100F0F5
:103D500047FC054620688169090707D500F040FC4B
:103D6000401B0B28F6D312E001207047816941F017
:103D70000101816100F034FC054600BF20688169C3
:103D8000C90721D100F02CFC401B0B28F6D30120E1
:103D9000D4F89C100843C4F89C00032084F89800D1
:103DA000012003B0BDE8F08F08F58071616094F8E0
:103DB00098100029C7D1002084F89900204600F00F
:103DC000B3F92068BFE700BF816941F0020181615A
:103DD000217C826922F04002012918BF40328261B1
:103DE000617C826922F48042012908BF02F5804289
:103DF0008261A17C826922F48052012918BF02F5F8
:103E000080528261816921F44073D4E902120B432C
:103E10008361836923F0A4038361036923F01003A2
:103E200003619AB1012A0DD0022A09D08369032ABD
:103E300043F080038361036943F01002026105D1FE
:103E4000202200E0042283691A438261D4E90572CA
:103E5000E369561E6FF0FF02256A02EB0323B1F5FA
:103E6000407F43EA4663A5F1010646EA030640F2B5
:103E70000003CFF6FF7303EB074746EA0701C16172
:103E800010D1D4E90B65D4E90917013F02EB0622F2
:103E90006FF00F063A4306EB05173A4303EB014177
:103EA0001143C160236E2BB1616ED0F8C020114365
:103EB000C0F8C010E16DCDE90113D94240F6F01110
:103EC000C0F6010109D0D0F8C820A36E22F0070285
:103ED00051F823301A43C0F8C820D4F840C0BCF1D0
:103EE000000F09D0D0F8BC20636C22F0070251F813
:103EF00023301A43C0F8BC20D4F848B0BBF1000FFF
:103F00000AD0D0F8BC20E36C22F0700251F82330C4
:103F100042EA0312C0F8BC20D4F850A0BAF1000F56
:103F20000AD0D0F8BC20636D22F4E06251F823106F
:103F300042EA0121C0F8BC10404504D161688A689A
:103F400022F003028A600021C4F89410C4F89C1087
:103F5000012184F8981004F13409D0F884104FF648
:103F6000FC729143656C99E80C02009541EA82016C
:103F7000C0F88410D0F8841021F47F0141EA034195
:103F8000C0F884109918D0F888306FF38F0343EA93
:103F90008103C0F88830D0F8883023F4FE0343EA68
:103FA0000943C0F8883001EB4903D0F8A0606FF3F3
:103FB0008F0646EA8306C0F8A060D0F8A06026F419
:103FC000FE0646EA0C46C0F8A06005FB0C36D0F8A9
:103FD000B0306FF38F0343EA8603C0F8B030D0F8F7
:103FE000B03023F4FE0343EA0B43C0F8B030E36C77
:103FF000D0F8AC506FF38F0503FB0B6645EA8605DE
:10400000C0F8AC50D4F8548008FB0A65D0F8F060D2
:104010006FF38F0646EA8506C0F8F060D0F8F0E04E
:10402000A66D2EF47C1747EA0647C0F8F070F7003B
:1040300007EB8507D0F8C0506FF38F052F43C0F80A
:10404000C070D0F8C070009DDDF804E027F47C1744
:1040500005FB0CFC4AF2000547EA0E47C0F8C070A9
:10406000C4F2000503FB0BC305F54067D0F8C05050
:1040700007EB820207EB810125F07C57029D47EA9E
:104080000567C0F8C07001EBC90008FB0A3721675B
:10409000A16E00EB8C0C606700EB8303E266C4E961
:1040A0001EC30EFB01F300EB87006943C4F88000D8
:1040B00000EBC600C4F8840000EB8300C4F888005D
:1040C00000EB81004DF2FC31C4F20001C4F8900015
:1040D000884201D920205BE682421FD2114600208F
:1040E00041F8040BD4F890309942BFF45AAE5060B6
:1040F00002F10801D4F8903099423FBF906002F17C
:104100000C01D4F890309942BFF44BAED06010321D
:10411000D4F890108A42E1D343E600BF002003B0F8
:10412000BDE8F08F00000000B0B5B6B0044602A8AC
:10413000B8210025CDE93455CDE932553195FCF74C
:1041400036FA4DF200412068C4F20001884277D06F
:104150004AF20041C4F20001884239D04AF200011B
:10416000C4F20001884240F0B480002003904FF474
:10417000004002904FF080501D9002A801F0ACFD6D
:1041800008B1FCF7D5FF41F2D07144F2E040C2F231
:104190000041C5F602000A68002A02F101020A6025
:1041A00008D1C16841F48071C160C16801F48071B7
:1041B000019101990168132441F002010160006836
:1041C00000F00200019001984FF4407031E000BF10
:1041D000002003904FF4004002904FF080501D905B
:1041E00002A801F079FD08B1FCF7A2FF41F2D071FD
:1041F00044F2E040C2F20041C5F602000A68002A1B
:1042000002F101020A6008D1C16841F48071C16005
:10421000C16801F48071019101990168142441F091
:1042200002010160006800F00200019001984FF463
:104230004050319040F200400921C5F6020037E0BD
:104240004FF4004002904FF080501D9002A803955B
:1042500001F042FD08B1FCF76BFF41F2D07144F26E
:10426000E040C2F20041C5F602000A68002A02F1ED
:1042700001020A6008D1C16841F48071C160C1685F
:1042800001F480710191019901689F2441F00801B6
:104290000160006840F2004100F008000190C5F69E
:1042A000020101984FF44050319001F50060052162
:1042B000359131A9022232920022CDE9332200F059
:1042C000A3F805210022204600F07AFA204600F0EB
:1042D00063FA36B0B0BD0000704700000000000077
:1042E00010B58CB000210191009102AA6B464021CB
:1042F0000446FFF785FA68B10024C5F6020400BF42
:104300000121204600F054F94FF47A70FFF750F97C
:10431000F6E700BF02A96A4600232046FCF7A8FF83
:104320000CB010BD0000000010B58CB04AF2004384
:104330000268C4F2000300219A420191009101D069
:104340000CB010BD02AA6B4641210446FFF758FA93
:1043500060B10024C5F602040121204600F028F9CE
:104360004FF47A70FFF724F9F6E700BF02A96A4616
:1043700001232046FCF77CFF0CB010BD00000000BC
:1043800090F8981001290DD1022180F89810016849
:104390008A6922F001028A610021C0F89C10002085
:1043A000704700BFD0F89C1041F00401C0F89C1089
:1043B000012070470000000070470000000000006E
:1043C000704700000000000070470000000000007F
:1043D000704700000000000070470000000000006F
:1043E000704700000000000070470000000000005F
:1043F000704700000000000070470000000000004F
:1044000070470000000000002DE9F04F83B00F68F6
:10441000002F00F0C98000F1264642F2004506F167
:10442000FF76C5F602050A22A8424FEAB62540F2F9
:10443000040C08BF092200F120030093082DC5F6E3
:10444000000C38BF4FEAB622002400264FF00008C7
:1044500001920AE008F101080F6837FA08F206F144
:10446000020604F1040400F09F80012202FA08FE13
:1044700017EA0E09EED0D1F804B003220BF00307BF
:10448000B2407D1E6FEA020A012D11D88268CD6804
:1044900002EA0A02B5402A438260CBF30015426863
:1044A00022EA0E0205FA08F52A43426004E000BF42
:1044B000032F01D103271FE0C2688D6802EA0A02B8
:1044C000B540022F42EA0502C26015D16FF0030227
:1044D00004F01C0502EA580B009A0F2352F80BE077
:1044E000AB400F692EEA0303AF403B4342F80B3069
:1044F000D1F804B00BF00307026807FA06F302EAEA
:104500000A021BF4403F42EA03020260A2D044F2D6
:10451000F44340F2084EC5F60203C5F6000E0F251F
:104520001A6842F002021A601A6802F0020202924D
:1045300028F00302029B04F00C0352F80E709D4019
:10454000AF43019D05FA03F33B4342F80E304FF0B1
:10455000B04EDEF800204B6842EA0907DD0258BF82
:1045600022EA09079D02CEF80070DCF8002042EA3A
:10457000090758BF22EA09079D03CCF80070DCF850
:10458000802042EA090758BF22EA0907DB03CCF87A
:104590008070DCF87C2042EA090758BF22EA09074C
:1045A000CCF87C7056E700BF03B0BDE8F08F000088
:1045B000426902EA0103914341EA03418161704784
:1045C000002A08BF09048161704700000000000054
:1045D00041F20000C5F600400068000C7047000082
:1045E00048F62420C2F20040006870470000000036
:1045F00040F2000048F62421C2F20040C2F200411D
:1046000000780A681044086070470000000000004D
:1046100080B5032000F004F902F052FA44F2184188
:1046200040F66C23C5F60201C0F601030A68C2F326
:1046300003229A5C096801F00F0102F01F02595C25
:10464000D04040F20C02C2F2004201F01F0120FAF9
:1046500001F1116040F20801C2F2004108600F2030
:1046600000F00AF800281CBF012080BD00F07CF893
:10467000002080BD00000000B0B540F20005C2F28D
:1046800000452978F1B1044640F20800C2F200402A
:104690004FF47A72B2FBF1F10068B0FBF1F002F076
:1046A00033FD0F2C01464FF001000AD8002918BF36
:1046B000B0BD4FF0FF300022214600F081F800200D
:1046C0006C60B0BD0120B0BD10B54EF6A05E437861
:1046D000CEF2000E90F800C04EF8083CDEF8003034
:1046E00023F00103CEF8003043684EF8043C037B0E
:1046F000C27A817A447B120642EA0372837B42EAE1
:10470000C141C27B41EA8441447A41EA4341007A93
:1047100041EA024141EA042141EA400040EA0C003A
:10472000CEF8000010BD00004EF62450CEF200007E
:10473000BFF35F8F016821F48031016000210167C0
:1047400070470000000000004EF6245140F00100C8
:10475000CEF200010867086840F480300860BFF3BB
:104760004F8FBFF36F8F704781B044F2F440002247
:10477000C5F60200016841F00201016000680F21E6
:1047800000F0020000906FF00100009B01B000F00B
:1047900017B8000000000000002848BF704700F074
:1047A0001F01012202FA01F14EF20012C0F34A1079
:1047B000CEF2000242F82010704700000000000016
:1047C00070B54EF60C5C4FF0FF36CEF2000C00F1E7
:1047D000604505F56445DCF80030C3F3022E8EF029
:1047E0000703042B28BF0423BEF1030406FA03F3D6
:1047F00021EA030100F00F0338BF0024043B002826
:10480000634406FA04F048BF03F10C05A14022EA14
:10481000000008430001287070BD00000000000087
:104820004EF60C514FF6FF03CEF200010A681A4013
:1048300060F30A2242F0806040F0FD70086070472B
:1048400001680122C0F8D824002280F8CC248869AD
:1048500040F000608861486D40F08052002042F0D6
:1048600003024A6570470000704700000000000026
:1048700002680020516270472DE9F043D0F80080B3
:10488000D8F8243091B1D8F82870B1F1010C03EBBD
:1048900017414FD05FFA8CF30CF0030E042B08F590
:1048A00082730BD2002700242BE000BF002043EAD4
:1048B0000241C8F82810BDE8F08300BF0CF0FC09E5
:1048C00008F1F406002400BF56F8107F44F0010000
:1048D000C0B244F00305EDB201EB174144F002070A
:1048E00053F82000FFB2043401EB104053F82710B6
:1048F00053F82550E7B200EB11404F4500EB15414E
:10490000E2D1BEF1000F15D053F82700BEF1010F20
:1049100001EB10410ED0601CBEF1020FC0B253F883
:10492000200001EB104105D0A01CC0B253F82000BC
:1049300001EB104108EB8C0041EA0241C0F8041180
:104940000020BDE8F0830000D0F8E00407F088B94B
:1049500001EBC10200EB8202D0F8E004126A07F01A
:10496000EBB800000000000001EBC10200EB820286
:10497000D0F8E004D2F8602207F03AB90000000055
:10498000D0F8E00407F070B910B501F00F0E0A4638
:104990004FFA82FCD2090EEBCE01BCF1000F00EB06
:1049A000810303F5157148BF03F1140190F89434A5
:1049B0004A70012B81F800E002D1022010BD00BF37
:1049C000012280F8942402680446104607F060FF34
:1049D000002084F8940410BDB0B5037901F00F02F3
:1049E0009A4201D90120B0BD4CB202EBC2038C4601
:1049F000002C00EB830303F515714FEADC1448BF6C
:104A000003F1140190F894344C700024012B8C7045
:104A10000A7001D10220B0BD012280F894240268FE
:104A20000546104608F024FA204685F89444B0BDA7
:104A300001F00F0101EBC10100EB8100D0F8680229
:104A4000704700000000000010B54FFA81FE01F031
:104A50000F0C6FF3DF22BEF1000F0CEBCC0123D45F
:104A600000EB810E00218EF855120EF515718EF8AF
:104A700054C2CEF85C228EF85832022B01D10022AB
:104A80004A7190F89424012A02D1022010BD00BF7F
:104A9000012280F8942402680446104607F08CFD39
:104AA000002084F8940410BD00EB81014FF0010E4A
:104AB00001F814CF81F801E08A600B71A1F81AC0E7
:104AC000022BDCD0DDE7000080B501F00F0C0CEB11
:104AD000CC0100EB810E0021CEE998238379CEF83A
:104AE00068128EF855120EF51571012B8EF854C20E
:104AF00008BFCA6100681A4608F006FA002080BDA7
:104B0000B0B5027901F00F0494424FF001022DD8A4
:104B10004FFA81FC01EBC10304EBC405BCF1000FAB
:104B200000EB830303F5157300EB850548BF05F122
:104B3000140390F89454C9095970012D9A701C708F
:104B400002D10220B0BD00BF012180F894140546B7
:104B50000068194608F0B8F92CB9A979286805F257
:104B60009C4208F055F9002285F894241046B0BD07
:104B700080B501F00F0C90F806E00CEBCC01BEF113
:104B8000010F00EB810101F814CF4FF0000C0B6115
:104B90004FF00103CA60C1F814C04B7008BFCA616E
:104BA0000068724608F0B0F9002080BD00000000E7
:104BB0002DE9F04F87B005688246284608F0C8FB0B
:104BC00010B107B0BDE8F08FDAF8000008F0F0FB94
:104BD0000028F6D0D5F80808C0F30D20CAF8D40490
:104BE000DAF8000008F0E4FB8007DAF8000003D5EB
:104BF000416901F00201416105F50061059108F08C
:104C0000D7FBC006DAF80000069535D5816921F09A
:104C1000100181612C6A04F00F0000EBC001C4F3A5
:104C200043400AEB8101062801F5157512D00228D0
:104C30001BD147F6F07014EA000616D03409E96873
:104C40000698224608F0B8FBE86800EB1610E8600A
:104C500008E000BF0AF29C410822069808F0ACFB6D
:104C6000C4F30A14686920446861DAF800008169B5
:104C700041F010018161069D08F09AFB000340F1AC
:104C8000F980DAF8000008F06FFB002800F0F280ED
:104C900006464FF4306800244FF0000B0AF29C40A7
:104CA000049008E00BF1010B760808F1200804F1EC
:104CB000240400F0DF80F007F4D05FFA8BF9DAF813
:104CC0000000494608F06CFB0746C00761D005EBC1
:104CD000080001218160DAF8000008EB0001036C94
:104CE0008A689AF80650012D26D1150734D4950606
:104CF00000F1B88043F20B05C4F65475AB42069D33
:104D000002D312F4004231D10AEB0402D2F8743219
:104D100009696FF3DF41A3EB0101C2F86812A4BB7C
:104D2000D2F86432002B00F0A380D2F8600208446D
:104D3000C2F8600229E000BF43F20B05C4F65475C7
:104D4000FF35AB4218D11004069D0FD490061CD538
:104D50002020886019E000BF43F20B00069DC4F6D6
:104D60005470834215D312F4004012D04FF4004027
:104D7000886038070FD43DE0069D34B9DAF8641234
:104D800019B90021049A08F043F850464946FFF744
:104D9000EBFD38072ED505EB08000821816043F2B2
:104DA0000B01DAF80000C4F65471056C40448D42E2
:104DB00081680BD311F4004108D04FF400418160A9
:104DC000504600F095FD069D0AE000BF504600F0F9
:104DD0008FFD43F20B00C4F654708542069D09D343
:104DE0009AF80600012805D1DAF800000121049A9A
:104DF00008F00EF8F80607D4B8070BD4B80624D488
:104E0000B8047FF54FAF27E005EB08001021816063
:104E1000B807F3D56869000604D50599486840F4D9
:104E2000806048600AEB040090F85712012906D10F
:104E3000002180F857125046494600F07DFB05EBF3
:104E4000080002218160B806DAD505EB08002021B0
:104E50008160B8047FF526AF05EB08004FF40051E0
:104E600081601FE720208860069D380793D4C1E742
:104E7000012187E7DAF8000008F09AFA400340F1D0
:104E8000E180DAF8000008F067FA002800F0DA8024
:104E90000646069800F5106900250AF114000490F2
:104EA0000AF29C400290CDF80C9004E0760805F1DF
:104EB000010500F0C780F007F8D0EFB2DAF8000083
:104EC000394608F059FA0446C0070BD1200735D4FB
:104ED000E00639D460063DD4A00741D42006E5D5CC
:104EE00058E000BF059B05F00F004FF0010C09EBE7
:104EF00045120CFA00F0596B21EA00005863C2F821
:104F000008C09AF80600012812D105EBC5000499E3
:104F100001EB8000D0E902121144C16045B900697B
:104F200030B9DAF800000121029A07F071FF00BFE2
:104F300050463946FFF70CFD2007C9D509EB45104F
:104F400008218160E006C5D509EB4510102181607C
:104F50006006C1D509EB451040218160A007BDD591
:104F60000698294608F084F905EBC500049901EB81
:104F7000800010F8031F012905D10021017050465F
:104F8000394600F0D5FA09EB451002218160200670
:104F90007FF58CAF05EBC500049901EB8008D8E9DB
:104FA00004108142FFF482AFDAF800400A1AD8F800
:104FB00008309A4238BF134604EB451203F1030C44
:104FC000D2F818399BB2B3EB9C0F2BD302F51069C2
:104FD000D8F81010814223D9081A9AF80620D8E987
:104FE00002B1584538BF8346009220461FFA8BF322
:104FF0003A4608F08DFCD8F80C00D8F81410584444
:10500000C8F80C0001EB0B00C8F814000BF1030109
:10501000D9F8182092B2B2EB910FD9D2D8F810106B
:10502000DDF80C9081423FF641AF05F00F00012101
:1050300001FA00F0D4F8341821EA0000C4F834086A
:1050400034E700BFDAF8000008F0B2F900280DD408
:10505000DAF8000008F0ACF9000526D4DAF8000010
:1050600008F0A6F9000131D43CE000BF059948687A
:1050700020F0010048609AF8CC04012808D10020F3
:105080008AF8CC0400215046FFF7EEFB03E000BF96
:10509000504600F011FCDAF80000416901F00041CF
:1050A000416108F085F90005D8D505988068C007EA
:1050B00002D0504600F044FCDAF80000416901F4E7
:1050C0000061416108F074F900010BD5DAF80000C5
:1050D000416901F0006141619AF8CC1491B15046E8
:1050E00000F02EFCDAF8000008F062F9C0041AD4CF
:1050F000DAF8000008F05CF98004DAF8000000F14A
:105100000D8126E101218AF8CC14406DC0F38300A3
:10511000CAF8D0045046FFF7A7FBDAF8000008F001
:1051200047F9C004E4D50599486820F001004860BB
:10513000DAF80000102108F09BF89AF80400010644
:1051400000F0BB80C1B200F00300042902D20021AC
:1051500068E000BF6FF06002002302EA41124FF6E0
:105160007F370021069C00BFE61880339A4201F188
:105170000401C6F80879D6F8005925F40015C6F8D8
:105180000059C6F8087BD6F8005B25F40015C6F870
:10519000005BD6F8005B45F00065C6F8005BC6F81A
:1051A0002879D6F8205925F40015C6F82059C6F8F4
:1051B000287BD6F8205B25F40015C6F8205BD6F8CE
:1051C000205B45F00065C6F8205BC6F84879D6F844
:1051D000405925F40015C6F84059C6F8487BD6F862
:1051E000405B25F40015C6F8405BD6F8405B45F0FF
:1051F0000065C6F8405BC6F86879D6F8605925F4B2
:105200000015C6F86059C6F8687BD6F8605B25F4CF
:105210000015C6F8605BD6F8605B45F00065C6F81F
:10522000605BA1D1002848D0069A4D0102F51063B9
:1052300002F5306203EB41164FF67F3702EB411463
:105240000128B7605E5926F400165E51A7605659D2
:1052500026F400165651565946F0006656512CD089
:105260004E1C02284FEA461403EB461502EB461685
:10527000AF601D5925F400151D51B760175927F46B
:1052800000171751175947F00060105115D0881CAE
:105290004FF67F36470103EB401102EB40108E6062
:1052A000D95921F40011D9518660D05920F4001049
:1052B000D051D05940F00060D051059F8421442244
:1052C000F86940F00110F8619AF80F0000284FF0DB
:1052D0000B0008BF142104BF42F22B0010227B58A0
:1052E00018437850B85840F00B00B85038680AF2AC
:1052F0009C4220F4FE6038609AF80610DAF800004C
:1053000007F086FDDAF80000416901F4805141613F
:1053100008F04EF88004DAF800001AD507F090F98A
:10532000DAF8000008F004F88AF80700DAF800401C
:1053300001F03EFB9AF807200146204608F05CFA8F
:10534000504600F0A1FADAF80000416901F400517A
:10535000416108F02DF8000706D4DAF8000008F0E3
:1053600027F800060DD437E0504600F0A9FADAF825
:105370000000416901F00801416108F019F80006D8
:105380002AD50699886920F0800088619AF804007F
:10539000022821D30AF515740AF11405012640F2FA
:1053A0007B2703E001362437864215D21AF807100E
:1053B0000129F7D106F00F00320600EBC00005EB23
:1053C000800158BF04EB8001DAF8000007F0C0FE4E
:1053D0009AF80400E6E700BFDAF8000007F0E8FFFB
:1053E000C0024DD4DAF8000007F0E2FF8002069D0B
:1053F00040F17E809AF80410022928D305F5326026
:1054000001390AF51F72012306E000BF013900F1DE
:10541000200002F124021AD007681678012EF5D177
:10542000B7F1FF3FF2DCDAF8D46486EA1747FF07EA
:10543000ECD102F8013CAF6947F08007AF616F69BA
:105440003F06E3D40599486840F400704860DAF8F4
:105450000000416901F40011416107F0A9FF40001B
:105460004CD55046FFF770FADAF80000416901F0B8
:105470008041416107F09CFF40077FF5A2AB44E00B
:105480009AF80400022827D306990AF1140401F5BA
:1054900012650AF13B064FF00108012706E000BF44
:1054A00001372035874206F1240615D22968727823
:1054B000012AF5D1B1F1FF3FF2DC07F00F0086F8C9
:1054C000008000EBC00004EB8001DAF8000007F078
:1054D0003FFE9AF80400E3E7DAF80000416901F4BE
:1054E0008011416107F064FF8002069D3FF582AFA5
:1054F000DAF8000007F05CFF4000B2D4DAF80000F0
:1055000007F056FF40077FF55CABDAF8000044680F
:10551000610704D55046FFF733FADAF80000416816
:105520002143416007B0BDE8F08F0000000000009B
:10553000D0F8E00406F000BCD0F8E00406F014BC9B
:10554000002800F02781F0B581B0044690F895045A
:1055500028B9002084F89404204600F031F9032093
:1055600084F89504206807F04BFCD4E90001267C00
:10557000D4E90223009607F073F8002840F0048174
:105580002068002107F070FF002840F0FD8094F8AB
:1055900004E0BEF1000F00F0EE80BEF1040F0EF04B
:1055A000030C4FF0000241D30EF0FC03A4F1900075
:1055B00003250121EE1E80F8A460A0F8BE60AE1E97
:1055C00080F8C8606F1CA0F8E2606E1E80F8EC6086
:1055D0009F42A0F8066105F1040680F8A51080F846
:1055E000A820C0E92B22C0F8B42080F8C91080F8A8
:1055F000CC20C0E93422C0F8D82080F8ED1080F823
:10560000F020C0E93D22C0F8FC2080F8111180F89C
:105610001051A0F82A51354680F81421C0E94622DD
:10562000C0F8202100F19000C4D1F21EBCF1000F9F
:1056300032D002EBC20104F114000123BCF1010FCE
:1056400000EB810500F821204FF000016B706A83A8
:105650002971C5E9021129611ED0551CBCF1020F48
:1056600005EBC50600EB860700F826507B707D83AE
:105670003971C7E9021139610ED0911C012501EB86
:10568000C10200EB820300F8221000205D705983F4
:105690001871C3E902001861BEF1000F6BD0BEF1B2
:1056A000040F4FF0000236D30EF0FC000323214616
:1056B000DF1E81F854729F1E81F878725F1E81F898
:1056C0009C725F1C1D1D81F85522874281F858226B
:1056D000C1E99722C1F8642281F8792281F87C22FD
:1056E000C1E9A022C1F8882281F89D2281F8A02278
:1056F000C1E9A922C1F8AC2281F8C12281F8C032E7
:105700002B4681F8C422C1E9B222C1F8D02201F1AE
:105710009001CDD1EA1EBCF1000F2CD002EBC203E8
:1057200004F515700021BCF1010F00EB830700F8B0
:10573000232079703971C7E9021139611BD0531CDC
:10574000BCF1020F03EBC30700EB870600F827301C
:1057500071703171C6E9021131610CD0911C0027C2
:1057600001EBC10200EB820300F822105F701F7191
:10577000C3E902771F61D4E90001277CD4E9022341
:10578000009707F0E5F838B1022084F8950401206D
:1057900001B0F0BD0120704700206074012084F842
:1057A0009504207B012802D12046FFF749F82068A4
:1057B00007F0BEF8002001B0F0BD000000000000BE
:1057C000B0B5B4B0044606A8B821FAF7F0FE00213F
:1057D0002068C4F20401884202D034B0B0BD00BFDA
:1057E00044F2D8440025C5F6020401A9A06840F09F
:1057F0000100A060A06800F00100019001984FF442
:1058000080500190012002900220CDE90305002084
:105810000595C5F60200FEF7F7FD0520FDF7C8FE69
:105820004FF4802006904FF44010279006A807956B
:1058300000F052FA08B1FBF77BFC00F0C5F82068D5
:10584000052140F0007020602068002200F0007008
:10585000009000984A20FEF7B3FF4A20FEF79CFF15
:105860004B2005210022FEF7ABFF4B20FEF794FFF3
:105870004D2005210022FEF7A3FF4D20FEF78CFFEF
:1058800034B0B0BD0000000010B50446C07928B1A6
:10589000022801D0FBF74CFC012100E00021D4F8E4
:1058A000E00406F0EDFAD4F8E004BDE8104006F09C
:1058B0009BBA000000000000D0F8E00406F0C4BA73
:1058C000D0F8E00406F0CCBA90F89424012A01D173
:1058D0000220704710B5012280F8942441740446D8
:1058E0000268104607F074FF002084F8940410BD8D
:1058F000D0F8E02400F29C41104606F0D9BA00002E
:1059000010B5044690F89404012801D1022010BD7E
:105910002068012184F89414C168490606D5617B8A
:10592000012903D1816B41F48031816307F098FC38
:10593000206806F0EDFF002084F8940410BD0000FC
:1059400010B50446D0F8E00406F00EFB2068D0F84D
:10595000001E41F00101C0F8001EE07A002808BFD7
:1059600010BD4EF61050CEF20000016841F0060165
:10597000016010BD00000000B0B544F60C05C5F68E
:10598000020529684907296806D401F00701081AA9
:1059900018BF0120B0BD00BF21F0070108432860F7
:1059A000FEF71EFE044600BF55F8080C800407D41D
:1059B000FEF716FE001BB0F57A7FF5D90120B0BDC9
:1059C0000020B0BD0000000044F60C00C5F6020047
:1059D000016841F080710160704700000000000024
:1059E00010B544F294410446C5F602010A6842F03B
:1059F00002020A60086820F002000860FEF7E8FD75
:105A000041F203018842D4E9000105D8B1F1405FB9
:105A100002D1A16802E000BF0143A06804F10C03B9
:105A200008430ECB084348F20041C4F2000140EAAB
:105A300002404860086820F47C5040EA0320086077
:105A4000086840F06000086010BD00000000000021
:105A500080B500F0ADFF44F2204140F66C22C5F65F
:105A60000201C0F601020968C1F30211515C01F0A4
:105A70001F01C84080BD000080B544F2384EC5F615
:105A8000020E5EF8103C5EF8101C5EF80C2CC1F3A0
:105A9000053CDEF80410BCF1000F15D0C908D20691
:105AA00001EAE2716FF35F3100EE101A03F00301B7
:105AB0000229B8EE400A0DD081B95EF8381C89067B
:105AC00010D49FED361A1BE000218160C0E900115F
:105AD00080BD00BF9FED301A12E000BF9FED2D1A70
