:020000040800F2
:1000000068B9002499030008397F0008A167000837
:1000100029710008690A000859AC000800000000B6
:10002000000000000000000000000000A18C00089B
:100030003110000800000000A1820008C98C0008EF
:10004000B7030008B7030008B7030008B7030008A8
:10005000B7030008B7030008B7030008B703000898
:10006000B7030008B7030008B7030008890C0008AD
:10007000990C0008B7030008B7030008B70300088D
:10008000B7030008B7030008B7030008B703000868
:10009000B7030008B7030008B7030008B703000858
:1000A000B7030008B7030008B7030008B703000848
:1000B000B7030008B7030008B7030008B703000838
:1000C000B7030008B7030008B7030008B703000828
:1000D000B7030008B7030008B7030008B703000818
:1000E000B7030008B703000800000000B7030008CA
:1000F000B7030008B7030008B7030008B7030008F8
:10010000B7030008B7030008B7030008B7030008E7
:10011000B7030008B7030008B7030008B7030008D7
:10012000B7030008B7030008B7030008B7030008C7
:10013000B7030008B7030008B7030008B7030008B7
:1001400000000000000000000000000000000000AF
:10015000B7030008B7030008B7030008B703000897
:10016000B7030008B7030008517F0008417F00086B
:10017000B7030008617F0008B70300080000000013
:10018000B7030008B7030008B7030008B703000867
:10019000B7030008B7030008B7030008B703000857
:1001A000B7030008B7030008B70300080000000009
:1001B000B7030008B7030008B7030008B703000837
:1001C000B7030008B70300080000000000000000AB
:1001D0000000000000000000B7030008000000005D
:1001E000000000000000000000000000000000000F
:1001F0000000000000000000B7030008B70300087B
:10020000B7030008B703000800000000B7030008A8
:10021000B7030008B7030008B7030008B7030008D6
:10022000B703000800000000B7030008000000004A
:10023000B7030008B703000800000000B703000878
:10024000B7030008B7030008B7030008B7030008A6
:10025000B7030008B7030008B7030008B703000896
:10026000B7030008B7030008B7030008B703000886
:10027000B7030008B7030008B70300080000000038
:10028000B7030008B7030008B7030008B703000866
:1002900000000000B7030008B703000800000000DA
:1002A00000000000B7030008B7030008B703000808
:1002B00021990008B7030008B7030008B703000836
:1002C000B7030008B7030008B703000800F002F8FE
:1002D00000F052F814A696E8000CB244B344DA4594
:1002E00001D100F049F8BAE80F000FA696E83000F7
:1002F000A5EB040504EB0607AAEB0704A7F1010729
:100300004FEA15154FEA3414A4F10104AC4201D3AD
:1003100000F032F813F0010F18BFFB1A43F001038D
:1003200000F001F8DBE7184704CF000024CF0000FD
:10033000103A24BF78C878C1FAD8520724BF30C811
:1003400030C144BF04680C60704700007047000073
:100350000023002400250026103A28BF78C1FBD8CE
:10036000520728BF30C148BF0B6070471FB50CF063
:1003700089FE1FBD10B510BD00F058F91146FFF7FA
:10038000F5FF0AF055FE00F076F903B4FFF7F2FF2F
:1003900003BC00F079F900000A4880470A4880470A
:1003A0000A480047FEE7FEE7FEE7FEE7FEE7FEE756
:1003B000FEE7FEE7FEE7FEE705480649064A074B6B
:1003C0007047000049100008F18D0008CD020008B8
:1003D0006879002468B90024689900246899002489
:1003E00053EA020C00F069802DE9F04B4FF0000653
:1003F000002B1FBFB3FA83F503FA05F424FA05F6C0
:100400005E4012BF1643B2FA82F502FA05F4C5F156
:1004100020051EBF22FA05FC44EA0C04203556EAEA
:10042000044C4FEA144418BF641C4FF000084FF00E
:100430000009904271EB030C39D3002919BFB1FABE
:1004400081F701FA07F6B0FA80F700FA07F6C7F16C
:1004500020071EBF20FA07FC46EA0C062037B6FB31
:10046000F4FCA7EB0507103F07F01F0BCBF12006AC
:100470002CFA06F60CFA0BFB44BFB3460026202FDD
:10048000A4BF5E464FF0000B5BEA060C08BF4FF0BE
:10049000010B19EB0B0948EB0608ABFB027C06FBD2
:1004A00002CC0BFB03CCC01B71EB0C01C1E70B466C
:1004B000024641464846BDE8F08B13B5084318BFD5
:1004C0004FF0FF300146AFF30080BDE81C4070479D
:1004D000032A40F2308010F0030C00F0158011F870
:1004E000013BBCF1020F624498BF11F801CB00F848
:1004F000013B38BF11F8013BA2F1040298BF00F89C
:1005000001CB38BF00F8013B11F0030300F0578026
:10051000083AC0F0088051F8043B083A51F804CB7F
:10052000A0E80810F5E7121D5CBF51F8043B40F845
:10053000043BAFF30080D20724BF11F8013B11F850
:1005400001CB48BF11F8012B24BF00F8013B00F894
:1005500001CB48BF00F8012B704702F0FF0343EACC
:10056000032242EA024200F002B84FF0000200B556
:10057000134694469646203922BFA0E80C50A0E8C6
:100580000C50B1F12001BFF4F7AF090728BFA0E874
:100590000C5048BF0CC05DF804EB890028BF40F840
:1005A000042B08BF704748BF20F8022B11F0804F82
:1005B00018BF00F8012B704770477047704710B59F
:1005C000203AC0F00B80B1E81850A0E81850B1E80C
:1005D0001850A0E81850203ABFF4F5AF5FEA027C4B
:1005E00024BFB1E81850A0E8185044BF18C918C07B
:1005F000BDE810405FEA827C24BF51F8043B40F81C
:10060000043B08BF7047D20728BF31F8023B48BF00
:1006100011F8012B28BF20F8023B48BF00F8012B3E
:100620007047000000487047180000247546FFF727
:10063000F9FFAE4605006946534620F0070085469F
:1006400018B020B5FFF7B8FEBDE820404FF0000617
:100650004FF000074FF000084FF0000BAC46ACE83D
:10066000C009ACE8C009ACE8C009ACE8C00921F099
:1006700007018D46704710B50446AFF30080204651
:10068000BDE81040FFF781BE01491820ABBEFEE770
:10069000260002007047000000289FED350A66D052
:1006A000D0F81C114A7E002A08BF7047B0B52DED66
:1006B000048B041D90ED430A0546204691ED028A05
:1006C00091ED039A07F0E4FDB0EE480A204607F0EA
:1006D000DBFD05F15801204607F04AFC204607F0F3
:1006E00097FD4DF2A01005F18804C0F6000090EDD2
:1006F000001A4DF2A410C0F6000080FE411A90EDE1
:10070000002A2046B4EE402AF1EE10FA32FE010A29
:1007100085ED440A07F0BCFDB0EE490A204607F01B
:10072000B3FD05F1DC01204607F022FC204607F06E
:100730006FFD4DF2981095ED451AC0F6000030EEB1
:10074000010A90ED001A4DF29C10C0F6000080FEE8
:10075000411A90ED002AB4EE402AF1EE10FA32FE72
:10076000010A85ED460ABDEC048BBDE8B040704738
:10077000000000000000000040F2C062C2F200422F
:100780001378834204D153788B4201D110467047CD
:1007900092F82431834206D192F825318B4204BF6E
:1007A00002F59270704792F84832834206D192F86F
:1007B00049328B4204BF02F51270704792F86C33D5
:1007C000834206D192F86D338B4204BF02F55B7011
:1007D000704792F89034834206D192F891348B425C
:1007E00004BF02F59260704792F8B435834206D197
:1007F00092F8B5358B4204BF02F2B450704792F8BC
:10080000D836834206D192F8D9368B4204BF02F51E
:10081000DB60704792F8FC37834206D192F8FD37CF
:100820008B4204BF02F2FC70704792F82039834279
:1008300006D192F821398B4204BF02F5126070474D
:1008400092F8443A834206D192F8453A8B4204BF6B
:1008500002F64420704792F8683B834206D192F832
:10086000693B8B4204BF02F66830704792F88C3CBB
:1008700092F88DCC584081EA0C0108434FF00000FB
:1008800008BF02F68C400246104670470000000088
:10089000F0B581B02DED108B4DF29C104DF29811FA
:1008A000C0F60000C0F600010B279FED698A90EDAD
:1008B000009A91ED00AA4DF294104DF29011C0F6FD
:1008C0000000C0F6000190ED00BA91ED00CA4DF2B3
:1008D000A4104DF2A011C0F60000C0F6000190ED8A
:1008E00000DA91ED00EA4DF28C104DF28811C0F65D
:1008F0000000C0F6000190ED00FAD1ED008A4DF243
:1009000084104DF28011C0F60000C0F60001D0ED59
:10091000009AD1ED00AA39E095ED010A95ED021A91
:10092000B4EE40BA95ED053A80FE4C0A2146F1EE50
:1009300010FAB4EE41DA81FE4E1A3BFE000AF1EEE7
:1009400010FA7DFE010A95ED031AB4EE419A81FE7C
:100950004A1AF1EE10FA39FE012A95ED041AB4EEA6
:1009600041FA81FE681AF1EE10FAF4EE439A83FE22
:100970006A3A3FFE011AF1EE10FA79FE831A00F08E
:10098000BBFC00BFF8B2013716285DD2781EC4B296
:10099000204606F019FD0546204600F06DFB0428B0
:1009A000F0D0FCB206462146FFF7E6FE0028E9D06B
:1009B0000146D0F820010028E4D0D1F81C21527E55
:1009C000002ADFD06A78012AA6D0032A2AD0022A78
:1009D00034D195ED010A30468CFE401AB4EE40BA8F
:1009E000F1EE10FA3BFE010A81ED430A2146FFF7C2
:1009F000C3FE0028C6D0D0F820110029C2D0D0F8FC
:100A00001C11497E0029BDD00546FFF745FEF0EEDA
:100A1000400AD5F8200195ED430A214600F044FD37
:100A2000B0E700BF95ED030A214680FE4A1AB4EEF6
:100A3000409AF1EE10FA39FE010A02E0B0EE480ADF
:100A4000214600F04DFD9DE7BDEC108B01B0F0BDDF
:100A50000000000000000000FFF71AFF02200AF06B
:100A60001FFBF9E700000000FEE7000000000000A7
:100A700070B500F049FA41F27044C2F200442546D4
:100A800045F8840F00F040FA2646812146F88C0F85
:100A90000020C4F894002046FFF767FD284600F0C8
:100AA00097F9304684ED220A00F092F9601C40214B
:100AB00084ED240A0AF0D4F842F20410C2F2004095
:100AC000046070BD00000000002843D0082A18BF51
:100AD0007047B0B50446B1F80100BAEE090AF2EE6B
:100AE000090A0D46102140BA0BF0C2F884ED020A43
:100AF000BBEE0E0AE8782979F3EE0E0A000140EA0F
:100B000011100C210BF0B4F884ED030ABBEE0C0AB3
:100B10002879F3EE0C0A697900F00F0041EA002011
:100B20000C210BF0A5F884ED040A0021E87920756A
:100B3000287810284FEA101038BF01216075012075
:100B4000207604F12000617600F042F984ED090A74
:100B5000BDE8B04070470000002843D0082A18BF05
:100B60007047B0B50446B1F80100BAEE090AF2EEDA
:100B7000090A0D46102140BA0BF07AF884ED020AFA
:100B80009FED190AE8782979DFED180A000140EA9B
:100B900011100C210BF06CF884ED030A9FED140A80
:100BA0002879DFED140A697900F00F0041EA00208E
:100BB0000C210BF05DF884ED040A0021E879207522
:100BC000287810284FEA101038BF012160750120E5
:100BD000207604F12000617600F0FAF884ED090A2D
:100BE000BDE8B040704700BF000034C2000034428E
:100BF000000058C200005842002843D0082A18BFFD
:100C00007047B0B50446B1F80100BAEE090AF2EE39
:100C1000090A0D46102140BA0BF02AF884ED020AA9
:100C2000BBEE0E0AE8782979F3EE0E0A000140EADD
:100C300011100C210BF01CF884ED030ABAEE040A23
:100C40002879F2EE040A697900F00F0041EA0020E9
:100C50000C210BF00DF884ED040A0021E8792075D1
:100C6000287810284FEA101038BF01216075012044
:100C7000207604F12000617600F0AAF884ED090ADC
:100C8000BDE8B0407047000042F2EC30C2F20040D4
:100C900001F04AB80000000042F26440C2F2004095
:100CA00001F042B80000000040F20F42D0F800C04E
:100CB000C4F20202944511DC6F22C4F20202944590
:100CC00022DC3F22C4F20202944539DC1022C4F235
:100CD000020294455AD0282254E000BF40F26F42ED
:100CE000C4F2020294451BDC40F23F42C4F202020D
:100CF00094452DDC40F21042C4F20202944545D0E6
:100D000040F228423EE000BF9F22C4F20202944516
:100D100028DC7022C4F20202944537D0882231E0E8
:100D200040F29F42C4F20202944523DC40F270423A
:100D3000C4F20202944529D040F2884222E000BF6A
:100D40004022C4F20202944520D058221AE000BF8B
:100D500040F24042C4F20202944517D040F2584299
:100D600010E000BFA022C4F2020294450ED0B822C7
:100D700008E000BF40F2B842C4F20202944505D038
:100D800040F2A042C4F20202944517D10CF0F802DE
:100D90004AF6AB23103ACAF6AA23A2FB03310AA3F0
:100DA0005F2AC1F302115B5C40F2FF312CEA0101C2
:100DB000C36588BF04318165084670472CF0FF0188
:100DC00081650846704700BF000610160006101621
:100DD00010B582B041F2040ECEF2000EDEF8001023
:100DE000009141F20851DDF800C0C2F200410268F2
:100DF0000B69009C0460DEF80000019001980C6A09
:100E0000A04202D2C8690130C861ACEB020001EE19
:100E1000103A00EE100A01980862B8EE411AB8EED6
:100E2000400A80EE010A02B010BD00000000000080
:100E30002DE9F04782B041F2040041F20858CEF2A9
:100E40000000C2F20048016800910068019001981A
:100E5000D8E90721884202D20132C8F81C20019843
:100E6000C8F8200000984FF0FF330021E2FB030197
:100E7000D8F818200023C8E90A01FFF7B1FA44F2B4
:100E800040270023C0F20F0705463A460E46FFF7FB
:100E9000A7FA044600FB175044F6D3514FF47A7278
:100EA000C1F262010023A0FB0109284631464FF43C
:100EB0007A7A4FEA9917C8E90047FFF791FA00EEEE
:100EC000104A9FED0F2A90B2A8F80820B8EE401AF9
:100ED00000EE107AB8EE400AA1EE020A01EE100A06
:100EE00004FB0AF09FED072AB8EE411A00EB9910B7
:100EF000C8F80C00A1EE020A02B0BDE8F08700BFFE
:100F000000007A446F12833A2DE9F04F83B041F22A
:100F1000040041F20859CEF20000C2F20049016813
:100F20000191006802900298D9E90721884202D213
:100F30000132C9F81C200298C9F8200001984FF02E
:100F4000FF330021E2FB0301D9F818200023C9E98F
:100F50000A01FFF745FA44F240280023C0F20F08C7
:100F6000054642468A46FFF73BFA0746A0FB0801C2
:100F700044F6D3514FF47A72281AC1F26201A0FBF1
:100F80000104002328465146A6094FF47A7BC9E99B
:100F90000076FFF725FA06FB0BF0A9F80820E7FB1F
:100FA000082307FB0BF7801843F1000107EB9412AD
:100FB000C9F80C2003B0BDE8F08F0000000000006D
:100FC00010B54EF6FC5141F20004CEF20001CEF213
:100FD000000444F2402C4FF0000E0A68C0F20F0CDF
:100FE00042F080720A60C4F804E000FB0CF0236851
:100FF00044F6D35243F00103236041F20853C1F297
:101000006202C2F20043A0FB02214DF68362C4F2E9
:101010001B321861A0FB020288095861900CC3E9D9
:10102000060E60681862C3E90AEE10BD00000000F9
:101030007047000000000000EFF3108072B600BFA0
:10104000FEE700000000000044F60400C5F60200C0
:10105000816841F0020181600168890409D4016856
:1010600089045CBF01685FEA814102D40168890498
:10107000F2D57047000000000138C0B2152803D82F
:1010800002A1085C704700BF042070470102010004
:10109000000102010000030303030303030303032E
:1010A0000303000000000000B0B588B04FF0010558
:1010B000A0B1012912D8044642F20810C2F2004041
:1010C00001AA40F82140002000900221CDE904004F
:1010D00023C26946204601F057FE18B1284608B0E1
:1010E000B0BD00BF204602F063F918B101252846C3
:1010F00008B0B0BD01210022204601F085FD054663
:10110000002818BF0125284608B0B0BD0000000027
:1011100010B568B1092A0BD201600021C0E90111A4
:101120000822C0E90321C0E90511C0E9071110BD7B
:101130000024C5F6020400BF0121204602F028FA6F
:10114000C82001F04DFDF7E72DE9F0472DED108B9C
:101150008CB08046B0EE42EAC8B2B0EE61BAB0EEF2
:1011600041CAB0EE608AB0EE409A8946FFF784FF2C
:10117000022800F2B580B2EE091A0646BAEE090A54
:101180004DF25010C0F600004DF2441489FE411A91
:1011900000EB8600B4EE490AC0F60004F1EE10FA46
:1011A00090ED00AA30FE010AB0EE4ADAB4EE48AA89
:1011B000F1EE10FA05DC04EB860090ED001A81FEDA
:1011C00048DA4DF238104DF22C1AC0F60000C0F685
:1011D000000A00EB860090ED008AB0EE489AB4EE6B
:1011E0004E8AF1EE10FA05DC0AEB860090ED001A4B
:1011F00081FE4E9AB1EE04EA9FED3CFA8CFE4F1A46
:10120000FAEE090A10208BFE4E2A9FED39BA81FEB4
:101210000BCAB2EE091AC2FE0B8A09F0F1FE04EB0A
:101220008601B0EE4D0AF0EE4A0A074691ED001A2B
:101230000C2009F0E5FEB0EE4C0AF0EE4B0AB0EEE1
:101240004F1A04460C2009F0DBFEB0EE680AF0EEFF
:101250004B0AB0EE4E1A05460C2009F0D1FE0AEBFF
:101260008601B0EE490AF0EE480A064691ED001AF2
:101270000C2009F0C5FE390A8DF8041021098DF8FB
:101280000610C5F303218DF80B0041EA04118DF817
:10129000071031098DF80910C0F30321002041EA3D
:1012A00006118DF80A10CDE90400082101AACDE944
:1012B0000610CDE90800CDE90A0003A940468DF8E3
:1012C00005708DF80850CDF80C9001F0E5FC002871
:1012D00018BF012040000CB0BDEC108BBDE8F087BA
:1012E00002200CB0BDEC108BBDE8F0870000FA4383
:1012F00000000000000000002DE9F04381B02DED5A
:10130000108B8CB04DF290128046C0F60002102077
:10131000894692ED003A4DF29412C0F6000283FE27
:10132000405A92ED004A4DF2A012C0F60002B4EE0F
:10133000404AF1EE10FA92ED00BA4DF2A41234FEDA
:10134000050AC0F600028BFE605A92ED00CA4DF20B
:101350009812C0F60002B4EE60CAF1EE10FA92EDF7
:10136000008A4DF29C123CFE05DAC0F6000288FEAF
:10137000425AF0EE440A92ED009A4DF28812C0F6FD
:101380000002B4EE429AF1EE10FA92ED00EA4DF24C
:101390008C12C0F600028EFE412A39FE05AA92ED9B
:1013A00000FA4DF28412C0F60002B4EE41FAF1EEFA
:1013B00010FAD2ED009A4DF280127FFE028AC0F63A
:1013C0000002F4EE619AD2ED00AA8AFEE11AF1EE73
:1013D00010FA79FE81BAB0EE431A09F011FEB0EEB0
:1013E0004D0AF0EE4C0AB0EE4B1A0646102009F0FA
:1013F00007FEB0EE680AF0EE4F0AB0EE4E1A07464E
:10140000102009F0FDFDB0EE6B0AF0EE690AB0EEB7
:101410006A1A0446102009F0F3FDB0EE4A0AF0EE15
:10142000490AB0EE481A0546102009F0E9FD4FF6CA
:101430000072310AC0F2FF028DF8041002EA0020A7
:1014400001AA40EA0900390A8DF80610210A8DF830
:101450000810290A8DF80A1000F1807003904FF0EF
:1014600080400490002005900821CDE90610CDE9C8
:101470000800CDE90A0003A940468DF805608DF803
:1014800007708DF809408DF80B5001F005FC00281D
:1014900018BF012040000CB0BDEC108B01B0BDE8BE
:1014A000F0830000000000009FED041AB0EE602AF7
:1014B000F0EE410AF0EE411AFFF746BE00000000D0
:1014C000DFED050AB0EE402AB0EE600AB0EE601A19
:1014D000F0EE601AFFF738BE0000000000000000C8
:1014E000DFED050AB0EE402AB0EE600AB0EE601AF9
:1014F000F0EE601AFFF700BF0000000000000000DF
:1015000090ED001AB5EE401AF1EE10FA15DDB7EEC7
:10151000002AB4EE421AF1EE10FAA8BF704732EE7C
:10152000412A91ED013A22EE032AA1EE002A81ED33
:10153000002A81ED012AB0EE420A70470000000047
:1015400080ED000A704700002DE9F041044602F0EA
:1015500037F81CB3054694F83500022822D140F232
:101560000F472668C4F2020740F26F48BE426FF090
:101570000E00C4F202081DDC6F21C4F202018E428B
:101580002ADC3F21C4F202018E4241DC1021C4F268
:1015900002018E4263D028215CE000BF0120BDE83B
:1015A000F08100BF802060650120002184F83410A4
:1015B000BDE8F08146451BDC40F23F41C4F2020128
:1015C0008E422DDC40F21041C4F202018E4246D020
:1015D00040F228413EE000BF9F21C4F202018E424A
:1015E00028DC7021C4F202018E4238D0882131E01B
:1015F00040F29F41C4F202018E4223DC40F270416E
:10160000C4F202018E422AD040F2884122E000BF9B
:101610004021C4F202018E4221D058211AE000BFBD
:1016200040F24041C4F202018E4218D040F25841CB
:1016300010E000BFA021C4F202018E420FD0B821F9
:1016400008E000BF40F2B841C4F202018E4206D069
:1016500040F2A041C4F202018E42314607D1314628
:10166000306820F01E0041F8140B6FF080000A680B
:10167000464500EA020008601ADC9F20C4F202001E
:10168000864233DC5720C4F2020086425ADC102026
:10169000C4F20200864200F097802820C4F20200C3
:1016A000864200F091804020C4F202008AE000BF30
:1016B00045F22F40C5F6020086422DDC40F2B740CD
:1016C000C4F2020086424BDC40F27040C4F20200D9
:1016D000864279D040F28840C4F20200864273D03C
:1016E00040F2A040C4F202006CE000BF40F227408C
:1016F000C4F20200864243DCA020C4F2020086420B
:1017000062D0B820C4F2020086425DD040F21040A0
:10171000C4F2020056E000BF45F26B40C5F602007D
:1017200086423FDC45F23040C5F6020086424BD08F
:1017300045F24440C5F60200864245D045F2584085
:101740003EE000BF5820C4F2020086423CD0702028
:10175000C4F20200864237D08820C4F2020031E091
:1017600040F2B840C4F2020086422DD045F2084053
:10177000C5F60200864227D045F21C4020E000BF9B
:1017800040F22840C4F2020086421DD040F24040A0
:10179000C4F20200864217D040F25840C4F2020060
:1017A00010E000BF45F26C40C5F6020086420BD047
:1017B00045F29440C5F60200864205D045F28040CD
:1017C000C5F60200864204D1206E016821F48071C2
:1017D0000160306820F00100306000BF3068C00751
:1017E00010D001F0EDFE401B0628F7D320206065E5
:1017F000032084F835000120002184F83410BDE86E
:10180000F08100BF20680821B8424FF03F0211DC90
:101810006F23C4F2020398421EDC3F23C4F202038A
:10182000984235DC1023C4F20203984257D0282393
:1018300050E000BF40451BDC40F23F43C4F20203CE
:1018400098422DDC40F21043C4F20203984246D085
:1018500040F228433EE000BF9F23C4F202039842B7
:1018600028DC7023C4F20203984238D0882331E088
:1018700040F29F43C4F20203984223DC40F27043DB
:10188000C4F2020398422AD040F2884322E000BF0B
:101890004023C4F20203984221D058231AE000BF2B
:1018A00040F24043C4F20203984218D040F2584339
:1018B00010E000BFA023C4F2020398420FD0B82367
:1018C00008E000BF40F2A043C4F20203984206D0F1
:1018D00040F2B843C4F20203984240F0C580D4E914
:1018E000163707F01F07404502FA07F25A5019DC75
:1018F0009F21C4F20201884232DC5721C4F2020166
:10190000884259DC1021C4F20201884200F096801E
:101910002821C4F20201884200F090804021C4F2E4
:10192000020189E045F22F41C5F6020188422DDC13
:1019300040F2B741C4F2020188424BDC40F27041F0
:10194000C4F20201884279D040F28841C4F2020117
:10195000884273D040F2A041C4F202016CE000BFA3
:1019600040F22741C4F20201884243DCA021C4F2C4
:101970000201884262D0B821C4F2020188425DD0DF
:1019800040F21041C4F2020156E000BF45F26B4143
:10199000C5F6020188423FDC45F23041C5F602013E
:1019A00088424BD045F24441C5F60201884245D0F9
:1019B00045F258413EE000BF5821C4F2020188427E
:1019C0003CD07021C4F20201884237D08821C4F291
:1019D000020131E040F2B841C4F2020188422DD048
:1019E00045F20841C5F60201884227D045F21C4164
:1019F00020E000BF40F22841C4F2020188421DD01D
:101A000040F24041C4F20201884217D040F25841EE
:101A1000C4F2020110E000BF45F26C41C5F60201BC
:101A200088420BD045F29441C5F60201884205D0A8
:101A300045F28041C5F6020188420BD1616EA26E6B
:101A4000E06E4A6030B1016821F480710160D4E930
:101A50001C014160012084F835000020002184F839
:101A60003410BDE8F08100BF0421012237E70000F7
:101A7000F0B190F83510022918D180B540F20F422C
:101A80000168C4F20202914214DC6F23C4F2020323
:101A9000994225DC3F23C4F2020399423CDC102327
:101AA000C4F2020399425DD0282357E080214165AA
:101AB0000120704740F26F43C4F2020399421BDCDD
:101AC00040F23F43C4F2020399422DDC40F210433E
:101AD000C4F20203994245D040F228433EE000BFE1
:101AE0009F23C4F20203994228DC7023C4F202034C
:101AF000994237D0882331E040F29F43C4F2020379
:101B0000994223DC40F27043C4F20203994229D087
:101B100040F2884322E000BF4023C4F2020399420E
:101B200020D058231AE000BF40F24043C4F2020321
:101B3000994217D040F2584310E000BFA023C4F2EE
:101B4000020399420ED0B82308E000BF40F2B84328
:101B5000C4F20203994205D040F2A043C4F202034A
:101B6000994275D191424FF0040280F8352011DC82
:101B70006F20C4F20200814222DC3F20C4F2020046
:101B8000814239DC1020C4F20200814259D0282061
:101B900054E000BF40F26F40C4F2020081421BDCFF
:101BA00040F23F40C4F2020081422DDC40F210407E
:101BB000C4F20200814244D040F228403EE000BF1F
:101BC0009F20C4F20200814228DC7020C4F202008F
:101BD000814236D0882031E040F29F40C4F20200BA
:101BE000814223DC40F27040C4F20200814228D0DE
:101BF00040F2884022E000BF4020C4F2020081424F
:101C00001FD058201AE000BF40F24040C4F202004A
:101C1000814216D040F2584010E000BFA020C4F22C
:101C2000020081420DD0B82008E000BF40F2B84069
:101C3000C4F20200814204D040F2A040C4F202008B
:101C40008142086820F001000860002080BD00BFCC
:101C50000A6822F00E020A6045F25742C5F60202F7
:101C600091420A6822F001020A600FDC45F22F421D
:101C7000C5F60202914219DC45F20842C5F602029D
:101C8000914229D045F21C4222E000BF45F27F423A
:101C9000C5F60202914213DC45F25842C5F6020233
:101CA000914219D045F26C4212E000BF45F2304239
:101CB000C5F6020291420FD045F2444208E000BF4F
:101CC00045F29442C5F60202914205D045F28042A7
:101CD000C5F6020291421AD1D0E9181CD0E916E3E8
:101CE0000A6822F480720A6003F01F01012202FADE
:101CF00001F1CEF80410816ECCF80410C16E31B140
:101D00000A6822F480720A60D0E91C124A6001213C
:101D100080F83510016D0022002980F8342094D01D
:101D20008847002080BD00002DE9F04782B00021E7
:101D3000019140F2080148F2B513C2F20041C1F628
:101D40004E33856D40F26F490A680168C4F202099A
:101D50002E68A2FB032849452A6815DC9F22C4F29D
:101D6000020291422CDC5722C4F20202914251DC61
:101D70001022C4F2020291427BD02822C4F2020255
:101D8000914276D040226FE045F22F43C5F6020320
:101D9000994229DC40F2B743C4F20203994245DC80
:101DA00040F27042C4F20202914262D040F2884294
:101DB000C4F2020291425CD040F2A04254E000BF63
:101DC00040F22742C4F2020291423FDCA022C4F258
:101DD000020291424DD0B822C4F20202914248D090
:101DE00040F2104240E000BF45F26B43C5F60203EB
:101DF000994275DC45F23043C5F60203994200F082
:101E0000828045F24443C5F6020399427BD045F2F5
:101E1000584373E05822C4F20202914229D0702242
:101E2000C4F20202914224D088221DE040F2B8435D
:101E3000C4F2020399421CD045F20843C5F60203DE
:101E4000994260D045F21C4358E000BF40F228425E
:101E5000C4F2020291420CD040F24042C4F20202AB
:101E6000914206D040F25842C4F20202914240F040
:101E70005383C26D082302F01F0240F20F4A9340C1
:101E8000C4F2020A334200F0DE8051454FF00404F0
:101E900012DC6F27C4F20207B9426DDC3F27C4F29F
:101EA0000207B94200F39C801027C4F20207B9422E
:101EB00000F0BD802827B5E0494569DC40F23F4786
:101EC000C4F20207B94200F3938040F21047C4F213
:101ED0000207B94200F0AB8040F22847A2E000BF01
:101EE00045F26C43C5F6020399420CD045F280439B
:101EF000C5F60203994206D045F29443C5F60203A3
:101F0000994240F009830B68C76D07F01F0704264C
:101F1000BE40164218BF13F0040423D10226BE406F
:101F2000164218BF13F0020442D1FA40120740F1E2
:101F3000F38213F0080200F0EF820A6822F00E022A
:101F40000A60012101FA07F26A60416580F83510E4
:101F5000C16C00294FF0000280F8342040F0D88294
:101F6000DAE200BF1A046E6034D49A0636D40A68E6
:101F700022F004020A6031E09F27C4F20207B9424E
:101F800040DC7027C4F20207B94250D0882749E0EC
:101F900040F29F47C4F20207B9423BDC40F270476F
:101FA000C4F20207B94242D040F288473AE000BF8B
:101FB0001A046E6000F1B4829A0600F1B5820A68D4
:101FC00022F00A020A60012180F83510002180F811
:101FD0003410A9E2D90301D4816C98E2016C96E235
:101FE0004027C4F20207B94221D058271AE000BFA7
:101FF00040F24047C4F20207B94218D040F25847B5
:1020000010E000BFA027C4F20207B9420FD0B827E2
:1020100008E000BF40F2A047C4F20207B94206D070
:1020200040F2B847C4F20207B94218BF08240F684B
:10203000274208D00F6827F004070F60AB60436D9C
:1020400043F0010343650123934033426FD0514570
:1020500010DC6F27C4F20207B9421DDC3F27C4F22F
:102060000207B94234DC1027C4F20207B94256D045
:1020700028274FE049451BDC40F23F47C4F20207E6
:10208000B9422DDC40F21047C4F20207B94246D0F3
:1020900040F228473EE000BF9F27C4F20207B94242
:1020A00028DC7027C4F20207B94238D0882731E013
:1020B00040F29F47C4F20207B94223DC40F2704766
:1020C000C4F20207B9422AD040F2884722E000BF9A
:1020D0004027C4F20207B94221D058271AE000BFB6
:1020E00040F24047C4F20207B94218D040F25847C4
:1020F00010E000BFA027C4F20207B9420FD0B827F2
:1021000008E000BF40F2A047C4F20207B94206D07F
:1021100040F2B847C4F20207B94240F007824F6963
:102120003F0604D5AB60436D43F0020343650423CF
:10213000934033426FD0514510DC6F27C4F2020741
:10214000B9421DDC3F27C4F20207B94234DC102734
:10215000C4F20207B94256D028274FE049451BDC9C
:1021600040F23F47C4F20207B9422DDC40F210476B
:10217000C4F20207B94246D040F228473EE000BF11
:102180009F27C4F20207B94228DC7027C4F2020775
:10219000B94238D0882731E040F29F47C4F20207A5
:1021A000B94223DC40F27047C4F20207B9422AD098
:1021B00040F2884722E000BF4027C4F20207B9423C
:1021C00021D058271AE000BF40F24047C4F202076E
:1021D000B94218D040F2584710E000BFA027C4F21F
:1021E0000207B9420FD0B82708E000BF40F2A0476D
:1021F000C4F20207B94206D040F2B847C4F202075F
:10220000B94240F09B810F68BF0704D5AB60436DB6
:1022100043F004034365102303FA02F2324200F054
:10222000828051454FF0080310DC6F27C4F202078B
:10223000B9421DDC3F27C4F20207B94234DC102743
:10224000C4F20207B94256D028274FE049451BDCAB
:1022500040F23F47C4F20207B9422DDC40F210477A
:10226000C4F20207B94246D040F228473EE000BF20
:102270009F27C4F20207B94228DC7027C4F2020784
:10228000B94238D0882731E040F29F47C4F20207B4
:10229000B94223DC40F27047C4F20207B9422AD0A7
:1022A00040F2884722E000BF4027C4F20207B9424B
:1022B00021D058271AE000BF40F24047C4F202077D
:1022C000B94218D040F2584710E000BFA027C4F22E
:1022D0000207B9420FD0B82708E000BF40F2A0477C
:1022E000C4F20207B94206D040F2B847C4F202076E
:1022F000B94218BF04230F681F4214D0AA600A68AD
:1023000052030A6808D4D20508D40A6822F00802E9
:102310000A60016C21B906E0110351D4016C11B1BE
:10232000044688472046C16D01F01F02202101FAB2
:1023300002F3334200F0AF8001681027514511DCF1
:102340006F26C4F20206B1421EDC3F26C4F202062A
:10235000B14239DC1026C4F20206B1425BD0282615
:1023600054E000BF49451BDC40F23F46C4F2020680
:10237000B14231DC40F21046C4F20206B1424AD00A
:1023800040F2284642E000BF9F26C4F20206B14256
:102390002CDC7026C4F20206B1423CD0882635E01F
:1023A00040F29F46C4F20206B14227DC40F270467A
:1023B000C4F20206B1422ED040F2884626E000BFA9
:1023C000816C0029ACD1AEE74026C4F20206B142CE
:1023D00021D058261AE000BF40F24046C4F202065F
:1023E000B14218D040F2584610E000BFA026C4F217
:1023F0000206B1420FD0B82608E000BF40F2A04666
:10240000C4F20206B14206D040F2B846C4F2020657
:10241000B14218BF02270E683E423CD0AB6090F834
:102420003530042B0B681DD123F016030B604B696C
:1024300023F080034B61036C0BB9836C1BB10B68F9
:1024400023F008030B603F219140A960012180F82F
:102450003510016D00294FF0000280F8342057D16B
:102460005AE000BF5A030A680CD4D2050ED40A6899
:1024700022F010020A60012180F83510002180F856
:10248000341003E0110301D4416C00E0C16B11B1C1
:10249000044688472046416D00293DD0416DC9075B
:1024A00034D0042180F8351001684FEA98220B6877
:1024B00023F001030B60019B0133019393421AD86F
:1024C0000B68DB0717D0019B01330193934212D8AD
:1024D0000B68DB070FD0019B0133019393420AD8AD
:1024E0000B68DB0707D0019B01330193934202D8AD
:1024F0000B68DB07DFD10968C9074FF0030108BF8C
:10250000012180F83510002180F83410C16C19B118
:1025100002B0BDE8F047084702B0BDE8F08700BF51
:10252000D90301D4416CF2E7C16BF0E70B680423D7
:10253000934033427FF4FFAD6DE600BF0B686AE65F
:102540002DE9F041044601F03BF8FCB140F26F4840
:1025500005462068C4F2020840451BDC9F21C4F2F6
:102560000201884232DC5721C4F20201884259DC60
:102570001021C4F20201884200F083802821C4F2B5
:102580000201884200F07D80402175E00120BDE815
:10259000F08100BF45F22F41C5F60201884229DCD7
:1025A00040F2B741C4F20201884247DC40F2704178
:1025B000C4F20201884264D040F28841C4F20201B0
:1025C00088425ED040F2A04156E000BF40F2274171
:1025D000C4F20201884241DCA021C4F20201884217
:1025E0004FD0B821C4F2020188424AD040F21041D3
:1025F00042E000BF45F26B41C5F60201884200F39C
:10260000D18045F23041C5F60201884200F0DD80FC
:1026100045F24441C5F60201884200F0D68045F2F9
:102620005841CDE05821C4F20201884229D07021DE
:10263000C4F20201884224D088211DE040F2B84152
:10264000C4F2020188421CD045F20841C5F60201DD
:10265000884200F0BA8045F21C41B1E040F22841C6
:10266000C4F2020188420CD040F24041C4F202019F
:10267000884206D040F25841C4F20201884240F03C
:102680003981022184F83510002184F83410016862
:1026900021F00101016000BF20680168C9070DD069
:1026A00000F08EFF401B0628F6D320206065032033
:1026B00084F835000120BDE8F08100BF48F23F02F8
:1026C00004F108060168CFF61062114065694CCE2E
:1026D0001143A2691943E3693143266A0D43616AD4
:1026E0002B43042943EA060343EA020303D1D4E956
:1026F0000B652E4333436568A5F12906292E00F2A8
:102700003182DFE816F02B002B002B002B002B0072
:102710002B002F022F022F022F022F022F022F0237
:102720002F022F022F022F022F022F022F022F0221
:102730002F022B002B002B002B002F022F022F0229
:102740002F022B002B002F022F022F022F022F020D
:102750002F022B002B002B002B0000BF43F4801313
:1027600003600429436923F0070341EA030140F0B1
:10277000DD80D4E90A53002B41EA050100F0D68040
:10278000B2F5005F00F0B880002A40F0C180022D51
:1027900000F0C180012D00F0B580002D00F0BB805D
:1027A000C4E000BF45F26C41C5F6020188420CD07E
:1027B00045F28041C5F60201884206D045F29441B7
:1027C000C5F60201884240F0958004F1080E02210E
:1027D00084F83510002184F834100168A3699EE85C
:1027E0000450A2F18005E769B5FA85F566696D09BF
:1027F000402A4FEA853543EA07026FF3101142EA97
:10280000060208BF102541EADC0142EA0E02236AF3
:10281000294341EAD20141EA131140F80819C0B234
:10282000CD2148433C2101EA9020E0652046FEF797
:102830003BFAE16D012201F01F0102FA01F1416052
:102840002068404500F381809F21C4F20201884244
:1028500014DC5721C4F20201884227DC1021C4F2A3
:102860000201884200F0C7802821C4F20201884298
:1028700000F0C1804021C4F20201B9E040F22741DA
:10288000C4F20201884221DCA021C4F20201884284
:1028900000F0B180B821C4F20201884200F0AB80A0
:1028A00040F21041C4F20201A2E000BF5821C4F27C
:1028B0000201884200F09F807021C4F20201884228
:1028C00000F099808821C4F2020191E040F2284191
:1028D000C4F20201884200F08E8040F24041C4F20E
:1028E0000201884200F0878040F25841C4F20201A0
:1028F0007EE000BF4020D9E6032D17D8DFE805F0C1
:102900000E0B0E02A3F1C072B2FA82F2520904E079
:10291000032D03D30AD1C3F300623AB140206065AE
:10292000012084F83500BDE8F08100BF41612046F8
:10293000FEF7BAF9E16D3F2201F01F0102FA01F141
:102940008160206840457FF77FAF45F22F41C5F693
:102950000201884216DC40F2B741C4F2020188420B
:1029600026DC40F27041C4F20201884243D040F2BA
:102970008841C4F2020188423DD040F2A041C4F235
:10298000020135E045F26B41C5F6020188421FDCC9
:1029900045F23041C5F6020188422CD045F244414F
:1029A000C5F60201884226D045F258411EE000BF1C
:1029B00040F2B841C4F2020188421CD045F20841FD
:1029C000C5F60201884216D045F21C410EE000BF58
:1029D00045F26C41C5F6020188420CD045F29441A3
:1029E000C5F60201884206D045F28041C5F60201D3
:1029F000884240F0E18045F2574C45F6FC0EC5F6A2
:102A0000020CC5F6020E60450EDC45F22F41C5F6FC
:102A10000201884218DC45F20841C5F602018842ED
:102A200028D045F21C4121E045F27F41C5F6020164
:102A3000884213DC45F25841C5F60201884219D09C
:102A400045F26C4112E000BF45F23041C5F602018B
:102A500088420FD045F2444108E000BF45F294415E
:102A6000C5F60201884205D045F28041C5F6020153
:102A7000884247D100F0FC014CF6CD420839CCF633
:102A8000CC42A1FB0212AEF1FC05AEF17C061309AB
:102A9000A26803F01F01802A4FF0010205EB8305B5
:102AA000256602FA01F26666A26605D10020606022
:102AB000286072601EE000BF6368D9B25F1E072FF6
:102AC0002960726016D84E1E082E19D260450EF18C
:102AD000440237DC45F22F41C5F60201884249DC49
:102AE00045F20841C5F60201884259D045F21C4121
:102AF00052E000BF00206067C4E91B005CE000BF3B
:102B0000E06E54E000F0F8014AF6AB221039CAF644
:102B1000AA22A1FB021240F20F43C4F202030825CD
:102B20001109984203F1AA060B4688BF05EB121360
:102B300040F60005B042C4F2020505F1800628BF48
:102B40000B46A5E745F27F41C5F6020188421BDC32
:102B500045F25841C5F60201884221D045F26C4148
:102B60001AE000BF25F00307742F08BF43F4801359
:102B7000F6E500BF45F23041C5F6020188420FD0AC
:102B800045F2444108E000BF45F28041C5F602012C
:102B9000884205D045F29441C5F60201884213D11E
:102BA0000EEB83000121E066B140226761670021DE
:102BB0000160D4E91C01416000206065012184F8B6
:102BC0003510BDE8F08100BF40F60000C4F20200FD
:102BD00000F1FC0E00F5A072E2E70000000000002A
:102BE000B0B5044600F0ECFC40F200010546C2F22C
:102BF0000041621C097818BF0C4400BF00F0E0FCE3
:102C0000401BA042FAD3B0BD90F89830013B012B95
:102C10000ED80068836D0B4212D0836D0B408B423F
:102C200032D1C36D43F00203C3658B050ED412E0AD
:102C300000F19C01012002220B681A430A607047D0
:102C4000C36D43F00103C3658B0504D5D0F8E030B4
:102C50001343C0F8E0304B0504D5D0F8E4301A43F4
:102C6000C0F8E4204FF6FF72436DC3F6CF720A40FE
:102C70001A4342658A0F4AF614010020C4F200018B
:102C80000B681A430A6070470323C3658B05DDD4C4
:102C9000E1E700000000000090F89830022B1BD103
:102CA0002DE9F0430668D6F8C03013F07C5F1BD0E6
:102CB000D6F8C4309B0221D4D6F8C4300C69C3F3D3
:102CC000044CD1E90035002D8D6821D023432B43DE
:102CD00043F0804E20E000BFD0F89C1041F0080186
:102CE000C0F89C1001207047D0F89C1041F02001E2
:102CF000C0F89C100120BDE8F08300BFD0F89C1004
:102D000041F40071C0F89C100120BDE8F08300BFC1
:102D100044EA834343EA050E836ED0F88450D1E938
:102D200007970CFB03F48B6949EA0767D1F8148015
:102D3000D1F80C901F4305EB840347EA080745F8D8
:102D400024E047EA09475F60CF6887B14DF2E41598
:102D5000083303320024C0F6000500BF171957F8E6
:102D6000037C1F51CF680434EF5DBC42F6D30121D0
:102D700001FA0CF1C6F8D010C0F894100020BDE89C
:102D8000F08300000000000090F89820013A012A2A
:102D90000CD880B50A68002ACA680FD00B69072AC8
:102DA00043EA427E18D18B691BE000BFD0F89C102B
:102DB00041F00201C0F89C1001207047072A19D188
:102DC0000A69D1E906C3120442EA032242EA0C026C
:102DD00042F0605218E000BFD1F808C04B6943EAE6
:102DE0008C73006F496800EBC10240F831E053601A
:102DF000002080BD8B68D1E904CE9B0743EAC26204
:102E000042EA0C4242EA0E024968C06E40F82120B4
:102E1000002080BD00000000F0B12DE9F04F83B02C
:102E20004AF200080446C4F200080068404533D066
:102E300094F89810B9B3816921F01001816100F014
:102E4000BFFB054620688169090707D500F0B8FB7C
:102E5000401B0B28F6D312E001207047816941F036
:102E60000101816100F0ACFB054600BF206881696B
:102E7000C90721D100F0A4FB401B0B28F6D3012089
:102E8000D4F89C100843C4F89C00032084F89800F0
:102E9000012003B0BDE8F08F08F58071616094F8FF
:102EA00098100029C7D1002084F89900204600F02E
:102EB000B3F92068BFE700BF816941F00201816179
:102EC000217C826922F04002012918BF40328261D0
:102ED000617C826922F48042012908BF02F58042A8
:102EE0008261A17C826922F48052012918BF02F517
:102EF00080528261816921F44073D4E902120B434C
:102F00008361836923F0A4038361036923F01003C1
:102F100003619AB1012A0DD0022A09D08369032ADC
:102F200043F080038361036943F01002026105D11D
:102F3000202200E0042283691A438261D4E90572E9
:102F4000E369561E6FF0FF02256A02EB0323B1F519
:102F5000407F43EA4663A5F1010646EA030640F2D4
:102F60000003CFF6FF7303EB074746EA0701C16191
:102F700010D1D4E90B65D4E90917013F02EB062211
:102F80006FF00F063A4306EB05173A4303EB014196
:102F90001143C160236E2BB1616ED0F8C020114384
:102FA000C0F8C010E16DCDE90113D9424DF2A00186
:102FB000C0F6000109D0D0F8C820A36E22F00702A5
:102FC00051F823301A43C0F8C820D4F840C0BCF1EF
:102FD000000F09D0D0F8BC20636C22F0070251F832
:102FE00023301A43C0F8BC20D4F848B0BBF1000F1E
:102FF0000AD0D0F8BC20E36C22F0700251F82330E4
:1030000042EA0312C0F8BC20D4F850A0BAF1000F75
:103010000AD0D0F8BC20636D22F4E06251F823108E
:1030200042EA0121C0F8BC10404504D161688A68B9
:1030300022F003028A600021C4F89410C4F89C10A6
:10304000012184F8981004F13409D0F884104FF667
:10305000FC729143656C99E80C02009541EA82018B
:10306000C0F88410D0F8841021F47F0141EA0341B4
:10307000C0F884109918D0F888306FF38F0343EAB2
:103080008103C0F88830D0F8883023F4FE0343EA87
:103090000943C0F8883001EB4903D0F8A0606FF312
:1030A0008F0646EA8306C0F8A060D0F8A06026F438
:1030B000FE0646EA0C46C0F8A06005FB0C36D0F8C8
:1030C000B0306FF38F0343EA8603C0F8B030D0F816
:1030D000B03023F4FE0343EA0B43C0F8B030E36C96
:1030E000D0F8AC506FF38F0503FB0B6645EA8605FD
:1030F000C0F8AC50D4F8548008FB0A65D0F8F060F2
:103100006FF38F0646EA8506C0F8F060D0F8F0E06D
:10311000A66D2EF47C1747EA0647C0F8F070F7005A
:1031200007EB8507D0F8C0506FF38F052F43C0F829
:10313000C070D0F8C070009DDDF804E027F47C1763
:1031400005FB0CFC4AF2000547EA0E47C0F8C070C8
:10315000C4F2000503FB0BC305F54067D0F8C0506F
:1031600007EB820207EB810125F07C57029D47EABD
:103170000567C0F8C07001EBC90008FB0A3721677A
:10318000A16E00EB8C0C606700EB8303E266C4E980
:103190001EC30EFB01F300EB87006943C4F88000F7
:1031A00000EBC600C4F8840000EB8300C4F888007C
:1031B00000EB81004DF2FC31C4F20001C4F8900034
:1031C000884201D920205BE682421FD211460020AE
:1031D00041F8040BD4F890309942BFF45AAE5060D5
:1031E00002F10801D4F8903099423FBF906002F19B
:1031F0000C01D4F890309942BFF44BAED06010323D
:10320000D4F890108A42E1D343E600BF002003B017
:10321000BDE8F08F00000000B0B5B6B0044602A8CB
:10322000B8210025CDE93455CDE932553195FDF76A
:103230009CF94DF200412068C4F20001884275D02B
:103240004AF20041C4F20001884237D04AF200013C
:10325000C4F20001884240F0A980002003904FF49E
:10326000004002904FF080501D9002A801F0A0FA9B
:1032700008B1FDF7E1FE41F2385144F2E040C2F2FC
:103280000041C5F602000A68002A02F101020A6044
:1032900008D1C16841F48071C160C16801F48071D6
:1032A00001910199016841F002010160006800F09C
:1032B0000200019001984FF440702FE0002003902D
:1032C0004FF4004002904FF080501D9002A801F092
:1032D0006FFA08B1FDF7B0FE41F2385144F2E04018
:1032E000C2F20041C5F602000A68002A02F101029A
:1032F0000A6008D1C16841F48071C160C16801F4FD
:10330000807101910199016841F00201016000683A
:1033100000F00200019001984FF44050319040F2CB
:1033200000400921C5F6020037E000BF4FF400401D
:1033300002904FF080501D9002A8039501F038FADA
:1033400008B1FDF779FE41F2385144F2E040C2F293
:103350000041C5F602000A68002A02F101020A6073
:1033600008D1C16841F48071C160C16801F4807105
:1033700001910199016841F008010160006805218F
:1033800000F00800019001984FF44050319040F255
:103390000040C5F6020000F50060359131A9022217
:1033A00032920022CDE9332200F01EF836B0B0BDD3
:1033B00090F8981001290DD1022180F89810016829
:1033C0008A6922F001028A610021C0F89C10002065
:1033D000704700BFD0F89C1041F00401C0F89C1069
:1033E00001207047000000002DE9F04F83B00F6806
:1033F000002F00F0C98000F1264642F2004506F198
:10340000FF76C5F602050A22A8424FEAB62540F229
:10341000040C08BF092200F120030093082DC5F613
:10342000000C38BF4FEAB622002400264FF00008F7
:1034300001920AE008F101080F6837FA08F206F174
:10344000020604F1040400F09F80012202FA08FE43
:1034500017EA0E09EED0D1F804B003220BF00307EF
:10346000B2407D1E6FEA020A012D11D88268CD6834
:1034700002EA0A02B5402A438260CBF30015426893
:1034800022EA0E0205FA08F52A43426004E000BF72
:10349000032F01D103271FE0C2688D6802EA0A02E8
:1034A000B540022F42EA0502C26015D16FF0030257
:1034B00004F01C0502EA580B009A0F2352F80BE0A7
:1034C000AB400F692EEA0303AF403B4342F80B3099
:1034D000D1F804B00BF00307026807FA06F302EA1A
:1034E0000A021BF4403F42EA03020260A2D044F207
:1034F000F44340F2084EC5F60203C5F6000E0F2550
:103500001A6842F002021A601A6802F0020202927D
:1035100028F00302029B04F00C0352F80E709D4049
:10352000AF43019D05FA03F33B4342F80E304FF0E1
:10353000B04EDEF800204B6842EA0907DD0258BFB2
:1035400022EA09079D02CEF80070DCF8002042EA6A
:10355000090758BF22EA09079D03CCF80070DCF880
:10356000802042EA090758BF22EA0907DB03CCF8AA
:103570008070DCF87C2042EA090758BF22EA09077C
:10358000CCF87C7056E700BF03B0BDE8F08F0000B8
:10359000426902EA0103914341EA034181617047B4
:1035A000002A08BF09048161704700000000000084
:1035B00041F20000C5F600400068000C70470000B2
:1035C00047F26820C2F20040006870470000000027
:1035D00040F2000047F26821C2F20040C2F200410E
:1035E00000780A681044086070470000000000007E
:1035F00080B5032000F004F901F0CEFF44F2184139
:103600004DF21C13C5F60201C0F600030A68C2F3AE
:1036100003229A5C096801F00F0102F01F02595C55
:10362000D04040F20C02C2F2004201F01F0120FA29
:1036300001F1116040F20801C2F2004108600F2060
:1036400000F00AF800281CBF012080BD00F07CF8C3
:10365000002080BD00000000B0B540F20005C2F2BD
:1036600000452978F1B1044640F20800C2F200405A
:103670004FF47A72B2FBF1F10068B0FBF1F002F0A6
:10368000AFFA0F2C01464FF001000AD8002918BFED
:10369000B0BD4FF0FF300022214600F081F800203D
:1036A0006C60B0BD0120B0BD10B54EF6A05E437891
:1036B000CEF2000E90F800C04EF8083CDEF8003064
:1036C00023F00103CEF8003043684EF8043C037B3E
:1036D000C27A817A447B120642EA0372837B42EA11
:1036E000C141C27B41EA8441447A41EA4341007AC4
:1036F00041EA024141EA042141EA400040EA0C006B
:10370000CEF8000010BD00004EF62450CEF20000AE
:10371000BFF35F8F016821F48031016000210167F0
:1037200070470000000000004EF6245140F00100F8
:10373000CEF200010867086840F480300860BFF3EB
:103740004F8FBFF36F8F704781B044F2F440002277
:10375000C5F60200016841F00201016000680F2116
:1037600000F0020000906FF00100009B01B000F03B
:1037700017B8000000000000002848BF704700F0A4
:103780001F01012202FA01F14EF20012C0F34A10A9
:10379000CEF2000242F82010704700000000000046
:1037A00070B54EF60C5C4FF0FF36CEF2000C00F117
:1037B000604505F56445DCF80030C3F3022E8EF059
:1037C0000703042B28BF0423BEF1030406FA03F306
:1037D00021EA030100F00F0338BF0024043B002856
:1037E000634406FA04F048BF03F10C05A14022EA45
:1037F000000008430001287070BD000000000000B8
:103800004EF60C514FF6FF03CEF200010A681A4043
:1038100060F30A2242F0806040F0FD70086070475B
:103820007047000000000000D0F8E00406F09CB9EA
:1038300001EBC10200EB8202D0F8E004126A06F04C
:10384000FFB800000000000001EBC10200EB8202A3
:10385000D0F8E004D2F8602206F04EB90000000073
:10386000D0F8E00406F084B9B0B5037901F00F0296
:103870009A4201D90120B0BD4CB202EBC2038C4682
:10388000002C00EB830303F515714FEADC1448BFED
:1038900003F1140190F894344C700024012B8C70C7
:1038A0000A7001D10220B0BD012280F89424026880
:1038B0000546104606F000FE204685F89444B0BD4B
:1038C00010B54FFA81FE01F00F0C6FF3DF22BEF14D
:1038D000000F0CEBCC0123D400EB810E00218EF8FD
:1038E00055120EF515718EF854C2CEF85C228EF882
:1038F0005832022B01D100224A7190F89424012AF7
:1039000002D1022010BD00BF012280F89424026879
:103910000446104606F04CFD002084F8940410BDC7
:1039200000EB81014FF0010E01F814CF81F801E0A6
:103930008A600B71A1F81AC0022BDCD0DDE7000011
:1039400080B501F00F0C0CEBCC0100EB810E0021D7
:10395000CEE998238379CEF868128EF855120EF5C9
:103960001571012B8EF854C208BFCA6100681A464F
:1039700006F0EEFD002080BDB0B5027901F00F0425
:1039800094424FF001022DD84FFA81FC01EBC103A4
:1039900004EBC405BCF1000F00EB830303F51573C2
:1039A00000EB850548BF05F1140390F89454C9094C
:1039B0005970012D9A701C7002D10220B0BD00BF59
:1039C000012180F8941405460068194606F0A0FD10
:1039D0002CB9A979286805F29C4206F03DFD002229
:1039E00085F894241046B0BD80B501F00F0C90F816
:1039F00006E00CEBCC01BEF1010F00EB810101F8F8
:103A000014CF4FF0000C0B614FF00103CA60C1F8F6
:103A100014C04B7008BFCA610068724606F098FD7A
:103A2000002080BD000000002DE9F04F87B0056840
:103A30008246284606F0A8FF10B107B0BDE8F08F17
:103A4000DAF8000006F0D0FF0028F6D0D5F8080814
:103A5000C0F30D20CAF8D404DAF8000006F0C4FF61
:103A60008007DAF8000003D5416901F002014161E5
:103A700005F50061059106F0B7FFC006DAF8000011
:103A8000069535D5816921F0100181612C6A04F019
:103A90000F0000EBC001C4F343400AEB810106288C
:103AA00001F5157512D002281BD147F6F07014EA03
:103AB000000616D03409E9680698224606F098FFF9
:103AC000E86800EB1610E86008E000BF0AF29C41CD
:103AD0000822069806F08CFFC4F30A146869204493
:103AE0006861DAF80000816941F010018161069D8A
:103AF00006F07AFF000340F1F980DAF8000006F0E2
:103B00004FFF002800F0F28006464FF43068002492
:103B10004FF0000B0AF29C40049008E00BF1010BFF
:103B2000760808F1200804F1240400F0DF80F00793
:103B3000F4D05FFA8BF9DAF80000494606F04CFF42
:103B40000746C00761D005EB080001218160DAF863
:103B5000000008EB0001036C8A689AF80650012DFA
:103B600026D1150734D4950600F1B88043F20B0531
:103B7000C4F65475AB42069D02D312F4004231D113
:103B80000AEB0402D2F8743209696FF3DF41A3EB48
:103B90000101C2F86812A4BBD2F86432002B00F015
:103BA000A380D2F860020844C2F8600229E000BF96
:103BB00043F20B05C4F65475FF35AB4218D110041F
:103BC000069D0FD490061CD52020886019E000BF08
:103BD00043F20B00069DC4F65470834215D312F4D1
:103BE000004012D04FF40040886038070FD43DE009
:103BF000069D34B9DAF8641219B90021049A06F066
:103C00002BFC50464946FFF71FFE38072ED505EB23
:103C100008000821816043F20B01DAF80000C4F6C5
:103C20005471056C40448D4281680BD311F40041FE
:103C300008D04FF400418160504600F0F1FB069D32
:103C40000AE000BF504600F0EBFB43F20B00C4F665
:103C500054708542069D09D39AF80600012805D1C3
:103C6000DAF800000121049A06F0F6FBF80607D402
:103C7000B8070BD4B80624D4B8047FF54FAF27E0BB
:103C800005EB080010218160B807F3D568690006CC
:103C900004D50599486840F4806048600AEB040048
:103CA00090F85712012906D1002180F8571250468A
:103CB000494600F07DFB05EB080002218160B80653
:103CC000DAD505EB080020218160B8047FF526AF26
:103CD00005EB08004FF4005181601FE72020886049
:103CE000069D380793D4C1E7012187E7DAF8000081
:103CF00006F07AFE400340F1E180DAF8000006F0B9
:103D000047FE002800F0DA800646069800F51069A4
:103D100000250AF1140004900AF29C400290CDF8AC
:103D20000C9004E0760805F1010500F0C780F0076B
:103D3000F8D0EFB2DAF80000394606F039FE044652
:103D4000C0070BD1200735D4E00639D460063DD436
:103D5000A00741D42006E5D558E000BF059B05F03B
:103D60000F004FF0010C09EB45120CFA00F0596BF3
:103D700021EA00005863C2F808C09AF8060001283A
:103D800012D105EBC500049901EB8000D0E90212C5
:103D90001144C16045B9006930B9DAF80000012169
:103DA000029A06F059FB00BF50463946FFF740FD26
:103DB0002007C9D509EB451008218160E006C5D56B
:103DC00009EB4510102181606006C1D509EB451053
:103DD00040218160A007BDD50698294606F064FD04
:103DE00005EBC500049901EB800010F8031F0129C1
:103DF00005D1002101705046394600F0D5FA09EB93
:103E000045100221816020067FF58CAF05EBC500CF
:103E1000049901EB8008D8E904108142FFF482AFD5
:103E2000DAF800400A1AD8F808309A4238BF134628
:103E300004EB451203F1030CD2F818399BB2B3EB33
:103E40009C0F2BD302F51069D8F81010814223D9AA
:103E5000081A9AF80620D8E902B1584538BF8346B7
:103E6000009220461FFA8BF33A4606F0B9FED8F8C6
:103E70000C00D8F814105844C8F80C0001EB0B00E3
:103E8000C8F814000BF10301D9F8182092B2B2EB74
:103E9000910FD9D2D8F81010DDF80C9081423FF67E
:103EA00041AF05F00F00012101FA00F0D4F83418F9
:103EB00021EA0000C4F8340834E700BFDAF8000053
:103EC00006F092FD00280DD4DAF8000006F08CFD13
:103ED000000526D4DAF8000006F086FD000131D492
:103EE0003CE000BF0599486820F0010048609AF85E
:103EF000CC04012808D100208AF8CC0400215046C7
:103F0000FFF78EFC03E000BF504600F06DFADAF8D0
:103F10000000416901F00041416106F065FD0005C6
:103F2000D8D505988068C00702D0504600F080FAC6
:103F3000DAF80000416901F40061416106F054FDC6
:103F400000010BD5DAF80000416901F00061416120
:103F50009AF8CC1491B1504600F06AFADAF80000F1
:103F600006F042FDC0041AD4DAF8000006F03CFD69
:103F70008004DAF8000000F10D8126E101218AF8C1
:103F8000CC14406DC0F38300CAF8D0045046FFF74C
:103F900047FCDAF8000006F027FDC004E4D50599D7
:103FA000486820F001004860DAF80000102106F0AF
:103FB0007BFC9AF80400010600F0BB80C1B200F05F
:103FC0000300042902D2002168E000BF6FF0600204
:103FD000002302EA41124FF67F370021069C00BF02
:103FE000E61880339A4201F10401C6F80879D6F840
:103FF000005925F40015C6F80059C6F8087BD6F814
:10400000005B25F40015C6F8005BD6F8005B45F0B0
:104010000065C6F8005BC6F82879D6F8205925F463
:104020000015C6F82059C6F8287BD6F8205B25F481
:104030000015C6F8205BD6F8205B45F00065C6F891
:10404000205BC6F84879D6F8405925F40015C6F823
:104050004059C6F8487BD6F8405B25F40015C6F8F1
:10406000405BD6F8405B45F00065C6F8405BC6F89B
:104070006879D6F8605925F40015C6F86059C6F875
:10408000687BD6F8605B25F40015C6F8605BD6F84F
:10409000605B45F00065C6F8605BA1D1002848D0A0
:1040A000069A4D0102F5106302F5306203EB4116EA
:1040B0004FF67F3702EB41140128B7605E5926F4B2
:1040C00000165E51A760565926F4001656515659EF
:1040D00046F0006656512CD04E1C02284FEA46147A
:1040E00003EB461502EB4616AF601D5925F400158B
:1040F0001D51B760175927F400171751175947F08A
:104100000060105115D0881C4FF67F36470103EB35
:10411000401102EB40108E60D95921F40011D951A1
:104120008660D05920F40010D051D05940F0006082
:10413000D051059F84214422F86940F00110F861B4
:104140009AF80F0000284FF00B0008BF142104BF9D
:1041500042F22B0010227B5818437850B85840F098
:104160000B00B85038680AF29C4220F4FE603860B8
:104170009AF80610DAF8000006F06EF9DAF8000096
:10418000416901F48051416106F02EFC8004DAF8A7
:1041900000001AD506F050F9DAF8000006F0E4FB4A
:1041A0008AF80700DAF8004001F06EF99AF8072063
:1041B0000146204606F088FC504600F0FDF8DAF88B
:1041C0000000416901F40051416106F00DFC000757
:1041D00006D4DAF8000006F007FC00060DD437E03C
:1041E000504600F005F9DAF80000416901F00801D5
:1041F000416106F0F9FB00062AD50699886920F08E
:10420000800088619AF80400022821D30AF5157409
:104210000AF11405012640F27B2703E0013624371A
:10422000864215D21AF807100129F7D106F00F00BF
:10423000320600EBC00005EB800158BF04EB8001A3
:10424000DAF8000006F0A8FA9AF80400E6E700BFE2
:10425000DAF8000006F0C8FBC0024DD4DAF800001E
:1042600006F0C2FB8002069D40F17E809AF80410A1
:10427000022928D305F5326001390AF51F7201239E
:1042800006E000BF013900F1200002F124021AD03B
:1042900007681678012EF5D1B7F1FF3FF2DCDAF8A6
:1042A000D46486EA1747FF07ECD102F8013CAF69F6
:1042B00047F08007AF616F693F06E3D4059948680E
:1042C00040F400704860DAF80000416901F4001120
:1042D000416106F089FB40004CD55046FFF7A4FA37
:1042E000DAF80000416901F08041416106F07CFB91
:1042F00040077FF5A2AB44E09AF80400022827D3D8
:1043000006990AF1140401F512650AF13B064FF013
:104310000108012706E000BF01372035874206F17A
:10432000240615D229687278012AF5D1B1F1FF3F30
:10433000F2DC07F00F0086F8008000EBC00004EB11
:104340008001DAF8000006F027FA9AF80400E3E7A3
:10435000DAF80000416901F48011416106F044FB84
:104360008002069D3FF582AFDAF8000006F03CFBC4
:104370004000B2D4DAF8000006F036FB40077FF5C3
:104380005CABDAF800004468610704D55046FFF7DB
:1043900067FADAF8000041682143416007B0BDE8E0
:1043A000F08F000000000000D0F8E00405F008BC29
:1043B000D0F8E00405F01CBC10B50446C07928B163
:1043C000022801D0FCF738FE012100E00021D4F8DA
:1043D000E00405F099FCD4F8E004BDE8104005F0D5
:1043E00047BC000000000000D0F8E00405F070BCFD
:1043F000D0F8E00405F078BC90F89424012A01D1AB
:104400000220704710B5012280F8942441740446BC
:104410000268104606F044FB002084F8940410BDA6
:10442000D0F8E02400F29C41104605F085BC000065
:1044300010B50446D0F8E00405F0C6FC2068D0F8BA
:10444000001E41F00101C0F8001EE07A002808BFFC
:1044500010BD4EF61050CEF20000016841F006018A
:10446000016010BD00000000B0B544F60C05C5F6B3
:10447000020529684907296806D401F00701081ACE
:1044800018BF0120B0BD00BF21F00701084328601C
:10449000FFF796F8044600BF55F8080C800407D4CF
:1044A000FFF78EF8001BB0F57A7FF5D90120B0BD7B
:1044B0000020B0BD0000000010B544F29441044655
:1044C000C5F602010A6842F002020A60086820F09C
:1044D00002000860FFF76CF841F203018842D4E95A
:1044E000000105D8B1F1405F02D1A16802E000BF30
:1044F0000143A06804F10C0308430ECB084348F2C3
:104500000041C4F2000140EA02404860086820F41B
:104510007C5040EA03200860086840F060000860B2
:1045200010BD00000000000080B500F0ADFF44F2B7
:1045300020414DF21C12C5F60201C0F600020968C6
:10454000C1F30211515C01F01F01C84080BD0000A1
:1045500080B544F2384EC5F6020E5EF8103C5EF8A7
:10456000101C5EF80C2CC1F3053CDEF80410BCF105
:10457000000F15D0C908D20601EAE2716FF35F316E
:1045800000EE101A03F003010229B8EE400A0DD024
:1045900081B95EF8381C890610D49FED361A1BE0ED
:1045A00000218160C0E9001180BD00BF9FED301A7D
:1045B00012E000BF9FED2D1A0EE000BF5EF8381C20
:1045C00049F20002C0F2D032C1F3C10122FA01F176
:1045D00001EE101AB8EE411ADEF800109FED263AEF
:1045E0006FF35F2102EE101ADEF80010C1F34621CE
:1045F000B8EE422A00EE032A00EE10CAB7EE003AE7
:10460000B8EE400A81EE000A32EE031A02EE101AEA
:10461000B8EE422A20EE010A32EE031A80EE011AA9
:10462000BCEEC11A80ED001ADEF80010C1F306419D
:1046300001EE101AB8EE411A31EE031A80EE011A9B
:10464000BCEEC11A80ED011ADEF80010C1F306615C
:1046500001EE101AB8EE411A31EE031A80EE010A8B
:10466000BCEEC00A10EE101A816080BD0024744AAE
:10467000001BB74B0024744C000000390000000000
:1046800080B544F2404EC5F6020E5EF8183C5EF866
:10469000181C5EF8142CC1F3055CDEF80410BCF1A4
:1046A000000F15D0C908D20501EAE2716FF35F313E
:1046B00000EE101A03F003010229B8EE400A0DD0F3
:1046C00081B95EF8401C890610D49FED361A1BE0B4
:1046D00000218160C0E9001180BD00BF9FED301A4C
:1046E00012E000BF9FED2D1A0EE000BF5EF8401CE7
:1046F00049F20002C0F2D032C1F3C10122FA01F145
:1047000001EE101AB8EE411ADEF800109FED263ABD
:104710006FF35F2102EE101ADEF80010C1F346219C
:10472000B8EE422A00EE032A00EE10CAB7EE003AB5
:10473000B8EE400A81EE000A32EE031A02EE101AB9
:10474000B8EE422A20EE010A32EE031A80EE011A78
:10475000BCEEC11A80ED001ADEF80010C1F306416C
:1047600001EE101AB8EE411A31EE031A80EE011A6A
:10477000BCEEC11A80ED011ADEF80010C1F306612B
:1047800001EE101AB8EE411A31EE031A80EE010A5A
:10479000BCEEC00A10EE101A816080BD0024744A7D
:1047A000001BB74B0024744C0000003900000000CF
:1047B0002DE9F0470446C07844F22C480007C5F6BE
:1047C000020828D5606E4FEA305103292AD8DFE865
:1047D00001F0030B131B00BFD8F8001041F40031A7
:1047E000C8F8001010E000BF04F10800022103F037
:1047F0008BFD064680B906E004F12800022103F093
:1048000017FE064640B9606ED8F8241021F4401116
:104810000843C8F8240000266078C00706D1354652
:104820002FE000BF01266078C007F8D0A06D0428F3
:104830003ED83546DFE800F004140E0B0B0000BF35
:10484000D8F80000354640F40030C8F800002F4684
:10485000C5B90DE004F12800002103F0E9FD04E0F2
:1048600004F10800002103F04FFD05462F464DB925
:10487000D8F82400A16D20F0070000250843C8F8EF
:1048800024003746607840073AD5D4F8A4004FEAB0
:104890007050052818D8DFE800F0031D11232323EA
:1048A000D8F8000040F40030C8F8000018E000BF5D
:1048B0000125012760784007E7D421E004F12800B2
:1048C000002103F0B5FD0AE001250126607800070C
:1048D0001AD44FE004F10800002103F015FD05464D
:1048E0002E461DB1607800070ED443E0D8F82C00A6
:1048F000D4F8A41020F4600000250843C8F82C0068
:104900003E466078000735D5D4F8A8004FEA3060FD
:10491000052813D8DFE800F004180C1E1E1E00BF87
:10492000D8F8000040F40030C8F8000012E000BFE2
:1049300004F12800002103F07BFD0AE00125012796
:10494000E07880071AD434E004F10800002103F075
:10495000DBFC05462F461DB1E07880070ED428E029
:10496000D8F82C00D4F8A81020F0E0600025084307
:10497000C8F82C003746E07880071AD5E06C4FEA7B
:104980003010032838D8DFE800F009032D0900BFF4
:10499000D8F8000040F40030C8F800002E464DB9A9
:1049A000D8F82000E16C20F0300000250843C8F85A
:1049B00020003E466078C00639D5E06D4FEA3030C1
:1049C000042847D8DFE800F004221C0A0A0000BFD0
:1049D000D8F8000040F40030C8F800002F463DBB76
:1049E0001CE000BF04F10800022103F08DFC054625
:1049F000002D2E46DED1D3E701250126DAE700BFE0
:104A000004F12800002103F013FD04E004F1080084
:104A1000002103F079FC05462F464DB9D8F8240053
:104A2000E16D20F4E04000250843C8F82400374633
:104A30006078800635D5206E4FEA3040052815D8BD
:104A4000DFE800F0041A0E04040400BF2E46DDB9AE
:104A50001EE000BF0125012760788006EBD420E02E
:104A600004F12800012103F0E3FC0AE001250126FE
:104A70006078400619D449E004F10800012103F0F0
:104A800043FC05462E461DB1607840060DD43DE03E
:104A9000D8F82400216E20F4E02000250843C8F84F
:104AA00024003E466078400630D5D4F8AC004FEA8A
:104AB000307005280ED8DFE800F003130703030366
:104AC0002F46ADB918E000BF04F12800012103F022
:104AD000AFFC0AE001250127607800061AD43CE00B
:104AE00004F10800012103F00FFC05462F461DB11B
:104AF000607800060ED430E0D8F82C00D4F8AC1062
:104B000020F0E04000250843C8F82C0037466078C4
:104B1000000622D5E06E58B1B0F1005F0CD0B0F1C4
:104B2000805F37D1D8F8000040F40030C8F80000AA
:104B30002E469DB908E000BF04F10800012103F0F2
:104B4000E3FB05462E464DB9D8F82400E16E20F06F
:104B5000405000250843C8F824003E46E078C007CE
:104B60001DD0A06C032855D8DFE800F008024A08E1
:104B7000D8F8000040F40030C8F80000A9467DB91C
:104B8000D8F82000A16C20F0030000250843C8F8E5
:104B9000200004E001250126E078C007E1D1B146FC
:104BA000A078400602D44F4618E000BFD8F8D403DE
:104BB00040F48070C8F8D403FEF702FD064600BF3B
:104BC000D8F8D403C00507D4FEF7FAFC801B64288C
:104BD000F6D90325032701E02F46FDB12078C00751
:104BE00000F06F80A06F4FEAF00005284ED8DFE894
:104BF00000F0035347030303002D2E4654D157E022
:104C000004F10800022103F07FFB0546002DA946B0
:104C1000C6D1B5E701254FF00109C1E7D8F8441026
:104C2000D4F8B000414011F4407F11D0D8F84410BE
:104C3000D8F8442042F48032C8F84420D8F8442000
:104C400021F4407122F48032C8F84420C8F844109E
:104C5000B0F5807F40F0D082FEF7B2FC064641F20C
:104C6000883A0325032700BFD8F84400800700F1E5
:104C7000C182FEF7A5FC801B5045F5D9AEE700BF09
:104C800004F12800012103F0D3FB0AE001250126ED
:104C90002078800719D446E004F10800012103F0D0
:104CA00033FB05462E461DB1207880070DD43AE02F
:104CB000D8F82800A16F20F0380000250843C8F874
:104CC00028003E46207880072DD5606F05280FD834
:104CD000DFE800F004140804040400BF2F46ADB957
:104CE00018E000BF04F12800012103F0A1FB0AE055
:104CF000012501272078400719D447E004F1080076
:104D0000012103F001FB05462F461DB12078400725
:104D10000DD43BE0D8F82800616F20F00700002593
:104D20000843C8F828003746207840072ED5D4F825
:104D3000900005280ED8DFE800F0031307030303F3
:104D40002E46ADB918E000BF04F12800012103F0A0
:104D50006FFB0AE001250126207880061AD44BE07B
:104D600004F10800012103F0CFFA05462E461DB1DB
:104D7000207880060ED43FE0D8F82C00D4F89010AC
:104D800020F0070000250843C8F82C003E46207894
:104D9000800631D5D4F88C004FEA307005280FD842
:104DA000DFE800F004140804040400BF2F46ADB986
:104DB00018E000BF04F12800022103F039FB0AE0EB
:104DC00001250127207840061AD44BE004F10800A1
:104DD000002103F099FA05462F461DB120784006C0
:104DE0000ED43FE0D8F82800D4F88C1020F0E04032
:104DF00000250843C8F8280037462078400631D5FA
:104E0000D4F898004FEAB02005280FD8DFE800F06A
:104E100004140804040400BF2E46ADB918E000BF16
:104E200004F12800022103F003FB0AE0012501261A
:104E3000207800061AD44EE004F10800002103F0A7
:104E400063FA05462E461DB1207800060ED442E0D6
:104E5000D8F82C00D4F8981020F4E050002508432E
:104E6000C8F82C003E462078000634D5D4F89C00C3
:104E70004FEA7030052815D8DFE800F0041A0E0458
:104E8000040400BF2F46E5B12068010727D4C106FE
:104E90003ED4000355D477E004F12800022103F04A
:104EA000C7FA0AE00125012720680107EFD516E0BF
:104EB00004F10800002103F027FA0546002D2F46D3
:104EC000E2D1D8F82C00D4F89C1020F460400025E2
:104ED0000843C8F82C00374620680107D7D5D4F816
:104EE0008000B0F5805F09D104F12800022103F0B1
:104EF0009FFA002818BF0127D4F88000D8F828109E
:104F000021F440510843C8F828002068C106C0D5E4
:104F1000D4F89400B0F5807F09D104F12800022173
:104F200003F086FA002818BF0127D4F89400D8F8B7
:104F30002C1021F440710843C8F82C0020680003AD
:104F400022D5D4F8A000B0F5003F11D0B0F5803FD5
:104F500008D0002844D104F10800002103F0D4F95E
:104F600005E000BF04F12800022103F061FA0546C4
:104F70002E4655B9D8F82C00D4F8A01020F44030B3
:104F800000250843C8F82C003E46A07840072CD5E1
:104F9000D4F88400B0F5401F0BD0B0F5001F0BD043
:104FA000B0F5801F2AD1D8F8000040F40030C8F8CE
:104FB00000002F46D5B907E004F12800012103F0D5
:104FC00037FA05462F468DB9D8F82800D4F8841052
:104FD00020F4401000250843C8F8280005E000BF71
:104FE00001250126A0784007D2D43746A078C00713
:104FF00009D13E462168880015D532E001250127F8
:10500000A078C007F5D0206DB0F5803F10D018BB58
:10501000D8F8000040F40030C8F800002E4685B1F2
:10502000216888001DD460688A0326D465E000BF2B
:1050300004F10800022103F067F90546002D2E4611
:10504000EED1D8F82000216D20F4803000250843EF
:10505000C8F82000CDE700BF01250126216888009F
:10506000E1D504F12800022103F0E2F9002818BF7D
:105070000126D4E900108A033FD5E26F6FF00103E7
:1050800003EB3223022B0BD34FEA322343B1012B24
:1050900040F0AA80D8F8003043F40033C8F800305C
:1050A00025B3CA022CD48A0234D44A003CD4CA0F95
:1050B00049D1090251D4C1075AD1810763D44107AC
:1050C0006CD4010776D4C10600F18080800607D534
:1050D00004F12800022103F0ABF9002818BF0125D4
:1050E000002D18BF01252846BDE8F087D8F82830E4
:1050F00023F440731A43C8F828203546CA02D2D593
:10510000D8F82420236F22F000421A43C8F8242044
:105110008A02CAD5D8F82420A36E22F080721A43DE
:10512000C8F824204A00C2D558F81C2C22F40042AA
:1051300048F81C2CD4F8B42058F81C3C1A4348F802
:105140001C2CCA0FB5D0D8F82020636D22F0405235
:105150001A43C8F820200902ADD5D8F82810D4F891
:10516000882021F440011143C8F82810C107A4D0B9
:1051700004F10800002103F0C7F8002818BF054615
:10518000606881079BD504F10800012103F0BCF899
:10519000002818BF05466068410792D504F1080051
:1051A000022103F0B1F8002818BF05466068010726
:1051B0007FF589AF04F12800002103F039F90028B8
:1051C00018BF05466068C1067FF580AF04F128006E
:1051D000012103F02DF9002818BF054660688006FC
:1051E0003FF576AF7CE700BF0125CA027FF55BAFD4
:1051F00086E700BFD4F8B0004FF6CF7358F81C2CE8
:10520000C0F2FF0300F4407122F47C5203EA101351
:105210006FF31F30B1F5407F08BF1A43002548F8EF
:105220001C2CD8F844100843C8F84400FFF7BBBC56
:105230002DE9F04381B0002800F0208142F20009FE
:105240000446C5F20029D9F8000000F00F0088429A
:105250000DD2D9F8000020F00F000843C9F8000073
:10526000D9F8000000F00F00884240F00781206864
:1052700044F218464207C5F602060AD52269336889
:1052800003F070039A4204D9336823F070031A4381
:10529000326002070AD56269736803F070039A42AC
:1052A00004D9736823F070031A437260C2060AD5EA
:1052B000A269736803F4E0639A4204D9736823F423
:1052C000E0631A43726082060AD5E269B36803F0AC
:1052D00070039A4204D9B36823F070031A43B26092
:1052E00010F002020AD0E368376807F00F07BB42EC
:1052F00004D9376827F00F073B433360C3073FD01B
:10530000306820F47062D4E901031A433260012846
:1053100056F8182C0AD0032804D002280AD1920388
:105320000BD4ABE0920108D4A8E000BFD20504D4AE
:10533000A4E000BF520740F1A180884656F8081C3F
:1053400021F00701084346F8080CFEF739F9054635
:1053500041F2883756F8080C616800F03800B0EB6D
:10536000C10F09D0FEF72CF9401BB842F2D9032037
:1053700001B0BDE8F08300BF2068414600F00202A2
:1053800052B1E268336803F00F039A4204D23368E3
:1053900023F00F031A433260D9F8002002F00F0205
:1053A0008A420CD9D9F8002022F00F020A43C9F82A
:1053B0000020D9F8002002F00F028A425ED1410796
:1053C0000AD52169326802F07002914204D2326833
:1053D00022F070021143316001070AD561697268D9
:1053E00002F07002914204D2726822F070021143FE
:1053F0007160C1060AD5A169726802F4E062914247
:1054000004D2726822F4E0621143716080060AD50A
:10541000E069B16801F07001884204D2B16821F0FE
:1054200070010843B06000F0B7F831684DF21C120B
:10543000C0F60002C1F30321515C336803F00F038F
:1054400001F01F01D25C20FA01F102F01F0040F2CE
:105450000C02C2F2004221FA00F0106040F2040097
:1054600040F20802C2F20040C2F20042006811603D
:1054700001B0BDE8F043FEF7EFB800BF012001B076
:10548000BDE8F0830000000080B500F085F844F22C
:1054900018414DF21C13C5F60201C0F600030A685C
:1054A000C2F303229A5C096801F00F0102F01F02A7
:1054B000595C20FA02F201F01F0040F20C01C2F226
:1054C000004122FA00F0086040F20801C2F20041F7
:1054D0000A6080BD0000000080B500F05DF844F275
:1054E000184C4DF21C13C5F6020CC0F60003DCF894
:1054F0000020C2F303229A5CDCF8001001F00F01D7
:1055000002F01F02595CD04040F20C02C2F200428D
:1055100001F01F0120FA01F1116040F20802C2F20D
:1055200000421060DCF80400C0F30210185C00F0C8
:105530001F0021FA00F080BD80B500F02DF844F284
:10554000184C4DF21C13C5F6020CC0F60003DCF833
:105550000020C2F303229A5CDCF8001001F00F0176
:1055600002F01F02595CD04040F20C02C2F200422D
:1055700001F01F0120FA01F1116040F20802C2F2AD
:1055800000421060DCF80400C0F30220185C00F058
:105590001F0021FA00F080BD44F20041C5F602016F
:1055A0000869C0F3C200032816D002280ED098BBA9
:1055B0000868800649F20000C0F2D03058BF70473A
:1055C0000968C1F3C101C840704700BF43F20060E1
:1055D000C0F26E10704700BF8A6A886AC0F3051C6B
:1055E000C86ABCF1000F4B6B1CD000F001004042B8
:1055F00000EAD3006FF35F3000EE100A02F0030000
:105600000228B8EE400A0FD090B90868800613D47B
:105610009FED251A1DE000BF40F60010C0F23D00CE
:10562000704700BF002070479FED1E1A11E000BFB9
:105630009FED1B1A0DE000BF086849F20002C0F29E
:10564000D032C0F3C10022FA00F001EE100AB8EE29
:10565000411A086B9FED153A6FF35F2002EE100AB6
:10566000086BC0F34620B8EE422A013000EE032A50
:1056700000EE10CAB7EE003AB8EE400A81EE000A1A
:1056800032EE031A20EE010A01EE100AB8EE411ABA
:1056900080EE010ABCEEC00A10EE100A704700BF8F
:1056A0000024744A001BB74B0024744C00000039DE
:1056B00070B3F0B581B00446007844F20046C007EC
:1056C000C5F6020626D1207880076AD5306910F029
:1056D0003801B06A42D0182908BF5FEA80703DD017
:1056E000E0683168002800F02D8121F0190108439D
:1056F0003060FDF765FF0546306840074AD4FDF786
:105700005FFF401B0228F7D9032001B0F0BD00BFA6
:1057100001207047306900F03801B06A102905D0C7
:1057200018290BD100F00300022807D1306880034C
:10573000C9D560680028C6D1AAE000BF616830689A
:10574000002900F03981B1F5A02F00F02D81B1F5CD
:10575000803F40F0478140F4803049E130684007A5
:10576000E06802D5002800F09380316821F019012B
:1057700008433060FDF724FF054600BF306840074E
:1057800008D4FDF71DFF401B02284FF00300F5D998
:1057900001B0F0BD7068216920F0FE4040EA016070
:1057A00070602078C0061AD5306900F03801B06A00
:1057B000082907D0182940F0858000F0030001284F
:1057C00040F080803068C00502D5E06980285FD154
:1057D000F068216A20F07C5040EA0160F060207897
:1057E00000073FD42078800656D42078400700F187
:1057F0008180656A9DB3306900F03800182840F058
:105800001981012DB16A306B42D001F00302A36A05
:105810009A423DD1C1F30511E26A914238D1014665
:10582000226B6FF35F21013A914231D1C0F34622DE
:10583000616B01398A422BD1C0F30642A16B013959
:105840008A4225D1C0F30660E16B013988421FD13D
:10585000706BA16CC0F3CC00814240F0A5810020A8
:1058600001B0F0BD60690028706F59D040F00100B0
:105870007067FDF7A5FE0546706F8007B2D4FDF78F
:105880009FFE401B0228F7D9032001B0F0BD00BFE6
:10589000012001B0F0BD00BFA0690028306871D0C0
:1058A00040F480503060FDF78BFE05463068800480
:1058B0009BD4FDF785FE401B0228F7D9032001B0D9
:1058C000F0BD00BFE0690028306800F0A18040F022
:1058D00080003060FDF774FE054600BF3068C005EB
:1058E0003FF576AFFDF76CFE401B02284FF003003A
:1058F000F4D94DE7D6F8000440F48070C6F80004EF
:10590000FDF75EFE054600BFD6F80004C0052BD4A7
:10591000FDF756FE401B6428F6D9032001B0F0BD08
:1059200020F001007067FDF74BFE0546706F8007A1
:105930007FF558AFFDF744FE401B02284FF00300EF
:10594000F4D925E721F001003060FDF739FE054666
:10595000306840077FF525AFFDF732FE401B022877
:105960004FF00300F4D913E7A168306F002900F06D
:105970008B80052900F08080012940F09D8040F057
:1059800001009FE020F480503060FDF719FE0546CD
:10599000306880047FF529AFFDF712FE401B022816
:1059A0004FF00300F4D9F3E640F480203060306813
:1059B00040F480301CE000BF20F48030306030685C
:1059C00020F480203060FDF7FBFD05463068800341
:1059D0007FF579AEFDF7F4FD401B64284FF003001E
:1059E000F4D9D5E620F480303060306820F480208F
:1059F0003060FDF7E5FD0546306880033FF563AE96
:105A0000FDF7DEFD401B6428F6D9032001B0F0BD90
:105A100020F080003060FDF7D3FD05463068C005FA
:105A20007FF5DDAEFDF7CCFD401B02284FF00300F3
:105A3000F4D9ADE6306820F080703060FDF7C0FD2D
:105A4000022D05460CD100BF306880014CD5FDF712
:105A5000B7FD401B02284FF00300F5D998E600BFC0
:105A6000306880017FF5FBAEFDF7AAFD401B0228E0
:105A70004FF00300F4D98BE640F004003067306F3C
:105A800040F001001EE000BF20F001003067306FE1
:105A900020F004003067FDF793FD054641F288379A
:105AA000306F80077FF5A5AEFDF78AFD401BB84239
:105AB0004FF00300F4D96BE620F001003067306F3F
:105AC00020F004003067FDF77BFD054641F2883782
:105AD000306F80073FF58DAEFDF772FD401BB84279
